{
  "_format": "hh-sol-artifact-1",
  "contractName": "DepositReward",
  "sourceName": "contracts/DepositReward.sol",
  "abi": [
    {
      "inputs": [
        {
          "internalType": "contract IERC20",
          "name": "_tokenA",
          "type": "address"
        },
        {
          "internalType": "contract NFTB",
          "name": "_nftB",
          "type": "address"
        },
        {
          "internalType": "contract TokenA",
          "name": "_token_A",
          "type": "address"
        }
      ],
      "stateMutability": "nonpayable",
      "type": "constructor"
    },
    {
      "inputs": [
        {
          "internalType": "address",
          "name": "owner",
          "type": "address"
        }
      ],
      "name": "OwnableInvalidOwner",
      "type": "error"
    },
    {
      "inputs": [
        {
          "internalType": "address",
          "name": "account",
          "type": "address"
        }
      ],
      "name": "OwnableUnauthorizedAccount",
      "type": "error"
    },
    {
      "anonymous": false,
      "inputs": [
        {
          "indexed": false,
          "internalType": "uint256",
          "name": "newAPR",
          "type": "uint256"
        }
      ],
      "name": "APRUpdated",
      "type": "event"
    },
    {
      "anonymous": false,
      "inputs": [
        {
          "indexed": true,
          "internalType": "address",
          "name": "user",
          "type": "address"
        },
        {
          "indexed": false,
          "internalType": "uint256",
          "name": "amount",
          "type": "uint256"
        },
        {
          "indexed": false,
          "internalType": "uint256",
          "name": "depositTime",
          "type": "uint256"
        }
      ],
      "name": "DepositMade",
      "type": "event"
    },
    {
      "anonymous": false,
      "inputs": [
        {
          "indexed": true,
          "internalType": "address",
          "name": "user",
          "type": "address"
        },
        {
          "indexed": false,
          "internalType": "uint256",
          "name": "tokenId",
          "type": "uint256"
        }
      ],
      "name": "NFTBDeposited",
      "type": "event"
    },
    {
      "anonymous": false,
      "inputs": [
        {
          "indexed": true,
          "internalType": "address",
          "name": "user",
          "type": "address"
        },
        {
          "indexed": false,
          "internalType": "uint256",
          "name": "tokenId",
          "type": "uint256"
        }
      ],
      "name": "NFTBWithdrawn",
      "type": "event"
    },
    {
      "anonymous": false,
      "inputs": [
        {
          "indexed": true,
          "internalType": "address",
          "name": "previousOwner",
          "type": "address"
        },
        {
          "indexed": true,
          "internalType": "address",
          "name": "newOwner",
          "type": "address"
        }
      ],
      "name": "OwnershipTransferred",
      "type": "event"
    },
    {
      "anonymous": false,
      "inputs": [
        {
          "indexed": true,
          "internalType": "address",
          "name": "user",
          "type": "address"
        },
        {
          "indexed": false,
          "internalType": "uint256",
          "name": "reward",
          "type": "uint256"
        }
      ],
      "name": "RewardClaimed",
      "type": "event"
    },
    {
      "anonymous": false,
      "inputs": [
        {
          "indexed": true,
          "internalType": "address",
          "name": "user",
          "type": "address"
        },
        {
          "indexed": false,
          "internalType": "uint256",
          "name": "amount",
          "type": "uint256"
        }
      ],
      "name": "Withdraw",
      "type": "event"
    },
    {
      "inputs": [],
      "name": "ALL_TOKEN_REWARD",
      "outputs": [
        {
          "internalType": "uint256",
          "name": "",
          "type": "uint256"
        }
      ],
      "stateMutability": "view",
      "type": "function"
    },
    {
      "inputs": [],
      "name": "LOCK_PERIOD",
      "outputs": [
        {
          "internalType": "uint256",
          "name": "",
          "type": "uint256"
        }
      ],
      "stateMutability": "view",
      "type": "function"
    },
    {
      "inputs": [],
      "name": "TOKEN_THRESHOLD",
      "outputs": [
        {
          "internalType": "uint256",
          "name": "",
          "type": "uint256"
        }
      ],
      "stateMutability": "view",
      "type": "function"
    },
    {
      "inputs": [],
      "name": "baseAPR",
      "outputs": [
        {
          "internalType": "uint256",
          "name": "",
          "type": "uint256"
        }
      ],
      "stateMutability": "view",
      "type": "function"
    },
    {
      "inputs": [],
      "name": "claimReward",
      "outputs": [],
      "stateMutability": "nonpayable",
      "type": "function"
    },
    {
      "inputs": [
        {
          "internalType": "uint256",
          "name": "amount",
          "type": "uint256"
        }
      ],
      "name": "deposit",
      "outputs": [],
      "stateMutability": "nonpayable",
      "type": "function"
    },
    {
      "inputs": [
        {
          "internalType": "uint256",
          "name": "tokenId",
          "type": "uint256"
        }
      ],
      "name": "depositNFTB",
      "outputs": [],
      "stateMutability": "nonpayable",
      "type": "function"
    },
    {
      "inputs": [
        {
          "internalType": "address",
          "name": "",
          "type": "address"
        },
        {
          "internalType": "uint256",
          "name": "",
          "type": "uint256"
        }
      ],
      "name": "deposits",
      "outputs": [
        {
          "internalType": "uint256",
          "name": "amount",
          "type": "uint256"
        },
        {
          "internalType": "uint256",
          "name": "depositTime",
          "type": "uint256"
        },
        {
          "internalType": "uint256",
          "name": "aprAtDeposit",
          "type": "uint256"
        },
        {
          "internalType": "uint256",
          "name": "claimedReward",
          "type": "uint256"
        },
        {
          "internalType": "bool",
          "name": "rewardClaimed",
          "type": "bool"
        }
      ],
      "stateMutability": "view",
      "type": "function"
    },
    {
      "inputs": [
        {
          "internalType": "address",
          "name": "user",
          "type": "address"
        }
      ],
      "name": "getDeposits",
      "outputs": [
        {
          "components": [
            {
              "internalType": "uint256",
              "name": "amount",
              "type": "uint256"
            },
            {
              "internalType": "uint256",
              "name": "depositTime",
              "type": "uint256"
            },
            {
              "internalType": "uint256",
              "name": "aprAtDeposit",
              "type": "uint256"
            },
            {
              "internalType": "uint256",
              "name": "claimedReward",
              "type": "uint256"
            },
            {
              "internalType": "bool",
              "name": "rewardClaimed",
              "type": "bool"
            }
          ],
          "internalType": "struct DepositReward.Deposit[]",
          "name": "",
          "type": "tuple[]"
        }
      ],
      "stateMutability": "view",
      "type": "function"
    },
    {
      "inputs": [
        {
          "internalType": "address",
          "name": "user",
          "type": "address"
        }
      ],
      "name": "getUserAPR",
      "outputs": [
        {
          "internalType": "uint256",
          "name": "",
          "type": "uint256"
        }
      ],
      "stateMutability": "view",
      "type": "function"
    },
    {
      "inputs": [],
      "name": "nftB",
      "outputs": [
        {
          "internalType": "contract NFTB",
          "name": "",
          "type": "address"
        }
      ],
      "stateMutability": "view",
      "type": "function"
    },
    {
      "inputs": [
        {
          "internalType": "address",
          "name": "operator",
          "type": "address"
        },
        {
          "internalType": "address",
          "name": "from",
          "type": "address"
        },
        {
          "internalType": "uint256",
          "name": "tokenId",
          "type": "uint256"
        },
        {
          "internalType": "bytes",
          "name": "data",
          "type": "bytes"
        }
      ],
      "name": "onERC721Received",
      "outputs": [
        {
          "internalType": "bytes4",
          "name": "",
          "type": "bytes4"
        }
      ],
      "stateMutability": "pure",
      "type": "function"
    },
    {
      "inputs": [],
      "name": "owner",
      "outputs": [
        {
          "internalType": "address",
          "name": "",
          "type": "address"
        }
      ],
      "stateMutability": "view",
      "type": "function"
    },
    {
      "inputs": [],
      "name": "renounceOwnership",
      "outputs": [],
      "stateMutability": "nonpayable",
      "type": "function"
    },
    {
      "inputs": [
        {
          "internalType": "uint256",
          "name": "newAPR",
          "type": "uint256"
        }
      ],
      "name": "setBaseAPR",
      "outputs": [],
      "stateMutability": "nonpayable",
      "type": "function"
    },
    {
      "inputs": [],
      "name": "tokenA",
      "outputs": [
        {
          "internalType": "contract IERC20",
          "name": "",
          "type": "address"
        }
      ],
      "stateMutability": "view",
      "type": "function"
    },
    {
      "inputs": [],
      "name": "token_A",
      "outputs": [
        {
          "internalType": "contract TokenA",
          "name": "",
          "type": "address"
        }
      ],
      "stateMutability": "view",
      "type": "function"
    },
    {
      "inputs": [
        {
          "internalType": "address",
          "name": "newOwner",
          "type": "address"
        }
      ],
      "name": "transferOwnership",
      "outputs": [],
      "stateMutability": "nonpayable",
      "type": "function"
    },
    {
      "inputs": [
        {
          "internalType": "address",
          "name": "",
          "type": "address"
        }
      ],
      "name": "userAPR",
      "outputs": [
        {
          "internalType": "uint256",
          "name": "",
          "type": "uint256"
        }
      ],
      "stateMutability": "view",
      "type": "function"
    },
    {
      "inputs": [],
      "name": "withdraw",
      "outputs": [],
      "stateMutability": "nonpayable",
      "type": "function"
    },
    {
      "inputs": [
        {
          "internalType": "uint256",
          "name": "tokenId",
          "type": "uint256"
        }
      ],
      "name": "withdrawNFTB",
      "outputs": [],
      "stateMutability": "nonpayable",
      "type": "function"
    }
  ],
  "bytecode": "0x608060405260086003553480156200001657600080fd5b50604051620013743803806200137483398101604081905262000039916200017c565b33806200006057604051631e4fbdf760e01b81526000600482015260240160405180910390fd5b6200006b8162000113565b50600180546001600160a01b038581166001600160a01b03199283161790925560028054858416908316179055600480549284169290911682178155604051630f38ca0d60e31b815230918101919091526a52b7d2dcc80cd2e400000060248201526379c6506890604401600060405180830381600087803b158015620000f157600080fd5b505af115801562000106573d6000803e3d6000fd5b50505050505050620001d0565b600080546001600160a01b038381166001600160a01b0319831681178455604051919092169283917f8be0079c531659141344cd1fd0a4f28419497f9722a3daafe3b4186f6b6457e09190a35050565b6001600160a01b03811681146200017957600080fd5b50565b6000806000606084860312156200019257600080fd5b83516200019f8162000163565b6020850151909350620001b28162000163565b6040850151909250620001c58162000163565b809150509250925092565b61119480620001e06000396000f3fe608060405234801561001057600080fd5b50600436106101375760003560e01c8063715018a6116100b8578063bb98b10e1161007c578063bb98b10e1461028b578063d6d681771461029d578063f2fde38b146102da578063f453a8f4146102ed578063f53fdb1514610300578063fc06571b1461032957600080fd5b8063715018a6146102375780638da5cb5b1461023f57806394f649dd14610250578063b6b55f2514610270578063b88a802f1461028357600080fd5b80633ccfd60b116100ff5780633ccfd60b146101de578063411110f3146101e857806358ac0e80146101fb57806359d20574146102045780635fba7f751461022457600080fd5b80630fc63d101461013c578063150b7a021461016c5780631820cabb146101a45780632f3a5d28146101ba57806332e2cea8146101cb575b600080fd5b60015461014f906001600160a01b031681565b6040516001600160a01b0390911681526020015b60405180910390f35b61018b61017a366004610ee7565b630a85bd0160e11b95945050505050565b6040516001600160e01b03199091168152602001610163565b6101ac603c81565b604051908152602001610163565b6101ac69d3c21bcecceda100000081565b60025461014f906001600160a01b031681565b6101e661033c565b005b60045461014f906001600160a01b031681565b6101ac60035481565b6101ac610212366004610f86565b60066020526000908152604090205481565b6101e6610232366004610faa565b61059f565b6101e66105e2565b6000546001600160a01b031661014f565b61026361025e366004610f86565b6105f6565b6040516101639190610fc3565b6101e661027e366004610faa565b61069c565b6101e6610841565b6101ac6a52b7d2dcc80cd2e400000081565b6102b06102ab366004611033565b610a02565b6040805195865260208601949094529284019190915260608301521515608082015260a001610163565b6101e66102e8366004610f86565b610a53565b6101e66102fb366004610faa565b610a91565b6101ac61030e366004610f86565b6001600160a01b031660009081526006602052604090205490565b6101e6610337366004610faa565b610c35565b60006301e13380815b336000908152600560205260409020548110156104635733600090815260056020526040812080548390811061037d5761037d61105f565b90600052602060002090600502019050600081600001541180156103b15750603c81600101546103ad919061108b565b4210155b1561045a5760008160010154426103c891906110a4565b905060006103d78560646110b7565b600354845484916103e7916110b7565b6103f191906110b7565b6103fb91906110ce565b9050600081846000015461040f919061108b565b600485015490915060ff161561043257835461042b908861108b565b965061043f565b61043c818861108b565b96505b506000835560038301555060048101805460ff191660011790555b50600101610345565b50600082116104d45760405162461bcd60e51b815260206004820152603260248201527f4e6f20746f6b656e7320617661696c61626c6520666f72207769746864726177604482015271185b081bdc881cdd1a5b1b081b1bd8dad95960721b60648201526084015b60405180910390fd5b60015460405163a9059cbb60e01b8152336004820152602481018490526001600160a01b039091169063a9059cbb906044016020604051808303816000875af1158015610525573d6000803e3d6000fd5b505050506040513d601f19601f8201168201806040525081019061054991906110f0565b6105655760405162461bcd60e51b81526004016104cb90611112565b60405182815233907f884edad9ce6fa2440d8a54cc123490eb96d2768479d49ff9c7366125a9424364906020015b60405180910390a25050565b6105a7610dcc565b60038190556040518181527f2ec8ccb96042321f3bbdd56e8e4e4339bc07c9c2021e14e18ef12f5db282b37a9060200160405180910390a150565b6105ea610dcc565b6105f46000610df9565b565b6001600160a01b0381166000908152600560209081526040808320805482518185028101850190935280835260609492939192909184015b828210156106915760008481526020908190206040805160a081018252600586029092018054835260018082015484860152600282015492840192909252600381015460608401526004015460ff1615156080830152908352909201910161062e565b505050509050919050565b69d3c21bcecceda10000008110156106e95760405162461bcd60e51b815260206004820152601060248201526f105b5bdd5b9d081d1bdbc81cdb585b1b60821b60448201526064016104cb565b6001546040516323b872dd60e01b8152336004820152306024820152604481018390526001600160a01b03909116906323b872dd906064016020604051808303816000875af1158015610740573d6000803e3d6000fd5b505050506040513d601f19601f8201168201806040525081019061076491906110f0565b6107805760405162461bcd60e51b81526004016104cb90611112565b336000818152600660209081526040808320546005808452828520835160a08101855288815242818701818152828701868152606084018a8152608085018b8152865460018082018955978d529b8b902095519b909702909401998a559051938901939093559151600288015551600387015590516004909501805460ff1916951515959095179094558151868152928301939093529192917f0b05f0d1cd0819f155b8a61f60baf7767c1ee49d04aeaab701df236140eb93f99101610593565b60006301e13380815b3360009081526005602052604090205481101561093e573360009081526005602052604081208054839081106108825761088261105f565b90600052602060002090600502019050603c81600101546108a3919061108b565b42101580156108b25750805415155b156109355760008160010154426108c991906110a4565b905060006108d88560646110b7565b600354845484916108e8916110b7565b6108f291906110b7565b6108fc91906110ce565b9050610908818761108b565b95508583600301600082825461091e919061108b565b90915550505060048201805460ff19166001179055505b5060010161084a565b5060015460405163a9059cbb60e01b8152336004820152602481018490526001600160a01b039091169063a9059cbb906044016020604051808303816000875af1158015610990573d6000803e3d6000fd5b505050506040513d601f19601f820116820180604052508101906109b491906110f0565b6109d05760405162461bcd60e51b81526004016104cb90611112565b60405182815233907f106f923f993c2149d49b4255ff723acafa1f2d94393f561d3eda32ae348f724190602001610593565b60056020528160005260406000208181548110610a1e57600080fd5b600091825260209091206005909102018054600182015460028301546003840154600490940154929550909350919060ff1685565b610a5b610dcc565b6001600160a01b038116610a8557604051631e4fbdf760e01b8152600060048201526024016104cb565b610a8e81610df9565b50565b6002546040516331a9108f60e11b81526004810183905233916001600160a01b031690636352211e90602401602060405180830381865afa158015610ada573d6000803e3d6000fd5b505050506040513d601f19601f82011682018060405250810190610afe9190611141565b6001600160a01b031614610b545760405162461bcd60e51b815260206004820152601760248201527f596f7520646f6e2774206f776e2074686973204e46544200000000000000000060448201526064016104cb565b600254604051632142170760e11b8152336004820152306024820152604481018390526001600160a01b03909116906342842e0e90606401600060405180830381600087803b158015610ba657600080fd5b505af1158015610bba573d6000803e3d6000fd5b5050336000908152600660205260409020549150610bd59050565b610be090600261108b565b33600081815260066020526040902091909155610bfc90610e49565b60405181815233907f63bf67b983bdd9b528503089a5d33173057e3ed0027471a659a2adc3664f1669906020015b60405180910390a250565b6002546040516331a9108f60e11b81526004810183905230916001600160a01b031690636352211e90602401602060405180830381865afa158015610c7e573d6000803e3d6000fd5b505050506040513d601f19601f82011682018060405250810190610ca29190611141565b6001600160a01b031614610cf85760405162461bcd60e51b815260206004820152601e60248201527f436f6e747261637420646f65736e2774206f776e2074686973204e465442000060448201526064016104cb565b600254604051632142170760e11b8152306004820152336024820152604481018390526001600160a01b03909116906342842e0e90606401600060405180830381600087803b158015610d4a57600080fd5b505af1158015610d5e573d6000803e3d6000fd5b505033600090815260066020526040902054610d7e9250600291506110a4565b33600081815260066020526040902091909155610d9a90610e49565b60405181815233907f3e424a2a8d035c5fa51fc03b4074e5298cd257a8cad4223aa4855616d92e501c90602001610c2a565b6000546001600160a01b031633146105f45760405163118cdaa760e01b81523360048201526024016104cb565b600080546001600160a01b038381166001600160a01b0319831681178455604051919092169283917f8be0079c531659141344cd1fd0a4f28419497f9722a3daafe3b4186f6b6457e09190a35050565b6001600160a01b038116600090815260066020526040812054905b6001600160a01b038316600090815260056020526040902054811015610ecd576001600160a01b0383166000908152600560205260409020805483919083908110610eb157610eb161105f565b6000918252602090912060026005909202010155600101610e64565b505050565b6001600160a01b0381168114610a8e57600080fd5b600080600080600060808688031215610eff57600080fd5b8535610f0a81610ed2565b94506020860135610f1a81610ed2565b935060408601359250606086013567ffffffffffffffff80821115610f3e57600080fd5b818801915088601f830112610f5257600080fd5b813581811115610f6157600080fd5b896020828501011115610f7357600080fd5b9699959850939650602001949392505050565b600060208284031215610f9857600080fd5b8135610fa381610ed2565b9392505050565b600060208284031215610fbc57600080fd5b5035919050565b602080825282518282018190526000919060409081850190868401855b8281101561102657815180518552868101518786015285810151868601526060808201519086015260809081015115159085015260a09093019290850190600101610fe0565b5091979650505050505050565b6000806040838503121561104657600080fd5b823561105181610ed2565b946020939093013593505050565b634e487b7160e01b600052603260045260246000fd5b634e487b7160e01b600052601160045260246000fd5b8082018082111561109e5761109e611075565b92915050565b8181038181111561109e5761109e611075565b808202811582820484141761109e5761109e611075565b6000826110eb57634e487b7160e01b600052601260045260246000fd5b500490565b60006020828403121561110257600080fd5b81518015158114610fa357600080fd5b602080825260159082015274151bdad95b881d1c985b9cd9995c8819985a5b1959605a1b604082015260600190565b60006020828403121561115357600080fd5b8151610fa381610ed256fea2646970667358221220d12ce0d2a0f912416f79d08949c753b97e11e9ed97e5fba26f5bbc77babf247064736f6c63430008180033",
  "linkReferences": {},
  "deployedLinkReferences": {}
}