{
  "_format": "hh-sol-artifact-1",
  "contractName": "TokenA",
  "sourceName": "contracts/TokenA.sol",
  "abi": [
    {
      "inputs": [],
      "stateMutability": "nonpayable",
      "type": "constructor"
    },
    {
      "inputs": [
        {
          "internalType": "address",
          "name": "spender",
          "type": "address"
        },
        {
          "internalType": "uint256",
          "name": "allowance",
          "type": "uint256"
        },
        {
          "internalType": "uint256",
          "name": "needed",
          "type": "uint256"
        }
      ],
      "name": "ERC20InsufficientAllowance",
      "type": "error"
    },
    {
      "inputs": [
        {
          "internalType": "address",
          "name": "sender",
          "type": "address"
        },
        {
          "internalType": "uint256",
          "name": "balance",
          "type": "uint256"
        },
        {
          "internalType": "uint256",
          "name": "needed",
          "type": "uint256"
        }
      ],
      "name": "ERC20InsufficientBalance",
      "type": "error"
    },
    {
      "inputs": [
        {
          "internalType": "address",
          "name": "approver",
          "type": "address"
        }
      ],
      "name": "ERC20InvalidApprover",
      "type": "error"
    },
    {
      "inputs": [
        {
          "internalType": "address",
          "name": "receiver",
          "type": "address"
        }
      ],
      "name": "ERC20InvalidReceiver",
      "type": "error"
    },
    {
      "inputs": [
        {
          "internalType": "address",
          "name": "sender",
          "type": "address"
        }
      ],
      "name": "ERC20InvalidSender",
      "type": "error"
    },
    {
      "inputs": [
        {
          "internalType": "address",
          "name": "spender",
          "type": "address"
        }
      ],
      "name": "ERC20InvalidSpender",
      "type": "error"
    },
    {
      "anonymous": false,
      "inputs": [
        {
          "indexed": true,
          "internalType": "address",
          "name": "owner",
          "type": "address"
        },
        {
          "indexed": true,
          "internalType": "address",
          "name": "spender",
          "type": "address"
        },
        {
          "indexed": false,
          "internalType": "uint256",
          "name": "value",
          "type": "uint256"
        }
      ],
      "name": "Approval",
      "type": "event"
    },
    {
      "anonymous": false,
      "inputs": [
        {
          "indexed": true,
          "internalType": "address",
          "name": "from",
          "type": "address"
        },
        {
          "indexed": true,
          "internalType": "address",
          "name": "to",
          "type": "address"
        },
        {
          "indexed": false,
          "internalType": "uint256",
          "name": "value",
          "type": "uint256"
        }
      ],
      "name": "Transfer",
      "type": "event"
    },
    {
      "anonymous": false,
      "inputs": [
        {
          "indexed": true,
          "internalType": "address",
          "name": "_to",
          "type": "address"
        },
        {
          "indexed": false,
          "internalType": "uint256",
          "name": "_amount",
          "type": "uint256"
        }
      ],
      "name": "TransferEvent",
      "type": "event"
    },
    {
      "inputs": [],
      "name": "ALL_TOKEN",
      "outputs": [
        {
          "internalType": "uint256",
          "name": "",
          "type": "uint256"
        }
      ],
      "stateMutability": "view",
      "type": "function"
    },
    {
      "inputs": [
        {
          "internalType": "address",
          "name": "owner",
          "type": "address"
        },
        {
          "internalType": "address",
          "name": "spender",
          "type": "address"
        }
      ],
      "name": "allowance",
      "outputs": [
        {
          "internalType": "uint256",
          "name": "",
          "type": "uint256"
        }
      ],
      "stateMutability": "view",
      "type": "function"
    },
    {
      "inputs": [
        {
          "internalType": "address",
          "name": "spender",
          "type": "address"
        },
        {
          "internalType": "uint256",
          "name": "value",
          "type": "uint256"
        }
      ],
      "name": "approve",
      "outputs": [
        {
          "internalType": "bool",
          "name": "",
          "type": "bool"
        }
      ],
      "stateMutability": "nonpayable",
      "type": "function"
    },
    {
      "inputs": [
        {
          "internalType": "address",
          "name": "account",
          "type": "address"
        }
      ],
      "name": "balanceOf",
      "outputs": [
        {
          "internalType": "uint256",
          "name": "",
          "type": "uint256"
        }
      ],
      "stateMutability": "view",
      "type": "function"
    },
    {
      "inputs": [],
      "name": "decimals",
      "outputs": [
        {
          "internalType": "uint8",
          "name": "",
          "type": "uint8"
        }
      ],
      "stateMutability": "view",
      "type": "function"
    },
    {
      "inputs": [
        {
          "internalType": "address",
          "name": "_to",
          "type": "address"
        },
        {
          "internalType": "uint256",
          "name": "_amount",
          "type": "uint256"
        }
      ],
      "name": "mintToken",
      "outputs": [],
      "stateMutability": "nonpayable",
      "type": "function"
    },
    {
      "inputs": [],
      "name": "name",
      "outputs": [
        {
          "internalType": "string",
          "name": "",
          "type": "string"
        }
      ],
      "stateMutability": "view",
      "type": "function"
    },
    {
      "inputs": [],
      "name": "staking",
      "outputs": [
        {
          "internalType": "address",
          "name": "",
          "type": "address"
        }
      ],
      "stateMutability": "view",
      "type": "function"
    },
    {
      "inputs": [],
      "name": "symbol",
      "outputs": [
        {
          "internalType": "string",
          "name": "",
          "type": "string"
        }
      ],
      "stateMutability": "view",
      "type": "function"
    },
    {
      "inputs": [],
      "name": "tokenCounter",
      "outputs": [
        {
          "internalType": "uint256",
          "name": "",
          "type": "uint256"
        }
      ],
      "stateMutability": "view",
      "type": "function"
    },
    {
      "inputs": [],
      "name": "totalSupply",
      "outputs": [
        {
          "internalType": "uint256",
          "name": "",
          "type": "uint256"
        }
      ],
      "stateMutability": "view",
      "type": "function"
    },
    {
      "inputs": [
        {
          "internalType": "address",
          "name": "to",
          "type": "address"
        },
        {
          "internalType": "uint256",
          "name": "value",
          "type": "uint256"
        }
      ],
      "name": "transfer",
      "outputs": [
        {
          "internalType": "bool",
          "name": "",
          "type": "bool"
        }
      ],
      "stateMutability": "nonpayable",
      "type": "function"
    },
    {
      "inputs": [
        {
          "internalType": "address",
          "name": "from",
          "type": "address"
        },
        {
          "internalType": "address",
          "name": "to",
          "type": "address"
        },
        {
          "internalType": "uint256",
          "name": "value",
          "type": "uint256"
        }
      ],
      "name": "transferFrom",
      "outputs": [
        {
          "internalType": "bool",
          "name": "",
          "type": "bool"
        }
      ],
      "stateMutability": "nonpayable",
      "type": "function"
    },
    {
      "inputs": [
        {
          "internalType": "address",
          "name": "_to",
          "type": "address"
        },
        {
          "internalType": "uint256",
          "name": "_amount",
          "type": "uint256"
        }
      ],
      "name": "transferToken",
      "outputs": [],
      "stateMutability": "nonpayable",
      "type": "function"
    }
  ],
  "bytecode": "0x60806040523480156200001157600080fd5b5060405180604001604052806006815260200165546f6b656e4160d01b81525060405180604001604052806003815260200162544b4160e81b81525081600390816200005e9190620002b0565b5060046200006d8282620002b0565b5050506200008e306b033b2e3c9fd0803ce80000006200009460201b60201c565b620003a4565b6001600160a01b038216620000c45760405163ec442f0560e01b8152600060048201526024015b60405180910390fd5b620000d260008383620000d6565b5050565b6001600160a01b03831662000105578060026000828254620000f991906200037c565b90915550620001799050565b6001600160a01b038316600090815260208190526040902054818110156200015a5760405163391434e360e21b81526001600160a01b03851660048201526024810182905260448101839052606401620000bb565b6001600160a01b03841660009081526020819052604090209082900390555b6001600160a01b0382166200019757600280548290039055620001b6565b6001600160a01b03821660009081526020819052604090208054820190555b816001600160a01b0316836001600160a01b03167fddf252ad1be2c89b69c2b068fc378daa952ba7f163c4a11628f55a4df523b3ef83604051620001fc91815260200190565b60405180910390a3505050565b634e487b7160e01b600052604160045260246000fd5b600181811c908216806200023457607f821691505b6020821081036200025557634e487b7160e01b600052602260045260246000fd5b50919050565b601f821115620002ab576000816000526020600020601f850160051c81016020861015620002865750805b601f850160051c820191505b81811015620002a75782815560010162000292565b5050505b505050565b81516001600160401b03811115620002cc57620002cc62000209565b620002e481620002dd84546200021f565b846200025b565b602080601f8311600181146200031c5760008415620003035750858301515b600019600386901b1c1916600185901b178555620002a7565b600085815260208120601f198616915b828110156200034d578886015182559484019460019091019084016200032c565b50858210156200036c5787850151600019600388901b60f8161c191681555b5050505050600190811b01905550565b808201808211156200039e57634e487b7160e01b600052601160045260246000fd5b92915050565b6108ee80620003b46000396000f3fe608060405234801561001057600080fd5b50600436106100ea5760003560e01c806370a082311161008c57806395d89b411161006657806395d89b41146101f3578063a9059cbb146101fb578063d082e3811461020e578063dd62ed3e1461021757600080fd5b806370a08231146101a457806379c65068146101cd57806390b1e20e146101e057600080fd5b806318160ddd116100c857806318160ddd1461014557806323b872dd14610157578063313ce5671461016a5780634cf088d91461017957600080fd5b806306fdde03146100ef578063095ea7b31461010d5780631072cbea14610130575b600080fd5b6100f7610250565b6040516101049190610716565b60405180910390f35b61012061011b366004610781565b6102e2565b6040519015158152602001610104565b61014361013e366004610781565b6102fc565b005b6002545b604051908152602001610104565b6101206101653660046107ab565b61034e565b60405160128152602001610104565b60065461018c906001600160a01b031681565b6040516001600160a01b039091168152602001610104565b6101496101b23660046107e7565b6001600160a01b031660009081526020819052604090205490565b6101436101db366004610781565b610372565b6101496b033b2e3c9fd0803ce800000081565b6100f76103cc565b610120610209366004610781565b6103db565b61014960055481565b610149610225366004610809565b6001600160a01b03918216600090815260016020908152604080832093909416825291909152205490565b60606003805461025f9061083c565b80601f016020809104026020016040519081016040528092919081815260200182805461028b9061083c565b80156102d85780601f106102ad576101008083540402835291602001916102d8565b820191906000526020600020905b8154815290600101906020018083116102bb57829003601f168201915b5050505050905090565b6000336102f08185856103e9565b60019150505b92915050565b6103073083836103fb565b816001600160a01b03167fb98a26c1d0427d0e3492e749861c7795bed8f6e7599a65143b5903942e611bb08260405161034291815260200190565b60405180910390a25050565b60003361035c85828561045f565b6103678585856103fb565b506001949350505050565b61037c82826104dd565b6005805490600061038c8361088c565b9190505550816001600160a01b03167fb98a26c1d0427d0e3492e749861c7795bed8f6e7599a65143b5903942e611bb08260405161034291815260200190565b60606004805461025f9061083c565b6000336102f08185856103fb565b6103f68383836001610517565b505050565b6001600160a01b03831661042a57604051634b637e8f60e11b8152600060048201526024015b60405180910390fd5b6001600160a01b0382166104545760405163ec442f0560e01b815260006004820152602401610421565b6103f68383836105ec565b6001600160a01b0383811660009081526001602090815260408083209386168352929052205460001981146104d757818110156104c857604051637dc7a0d960e11b81526001600160a01b03841660048201526024810182905260448101839052606401610421565b6104d784848484036000610517565b50505050565b6001600160a01b0382166105075760405163ec442f0560e01b815260006004820152602401610421565b610513600083836105ec565b5050565b6001600160a01b0384166105415760405163e602df0560e01b815260006004820152602401610421565b6001600160a01b03831661056b57604051634a1406b160e11b815260006004820152602401610421565b6001600160a01b03808516600090815260016020908152604080832093871683529290522082905580156104d757826001600160a01b0316846001600160a01b03167f8c5be1e5ebec7d5bd14f71427d1e84f3dd0314c0f7b2291e5b200ac8c7c3b925846040516105de91815260200190565b60405180910390a350505050565b6001600160a01b03831661061757806002600082825461060c91906108a5565b909155506106899050565b6001600160a01b0383166000908152602081905260409020548181101561066a5760405163391434e360e21b81526001600160a01b03851660048201526024810182905260448101839052606401610421565b6001600160a01b03841660009081526020819052604090209082900390555b6001600160a01b0382166106a5576002805482900390556106c4565b6001600160a01b03821660009081526020819052604090208054820190555b816001600160a01b0316836001600160a01b03167fddf252ad1be2c89b69c2b068fc378daa952ba7f163c4a11628f55a4df523b3ef8360405161070991815260200190565b60405180910390a3505050565b60006020808352835180602085015260005b8181101561074457858101830151858201604001528201610728565b506000604082860101526040601f19601f8301168501019250505092915050565b80356001600160a01b038116811461077c57600080fd5b919050565b6000806040838503121561079457600080fd5b61079d83610765565b946020939093013593505050565b6000806000606084860312156107c057600080fd5b6107c984610765565b92506107d760208501610765565b9150604084013590509250925092565b6000602082840312156107f957600080fd5b61080282610765565b9392505050565b6000806040838503121561081c57600080fd5b61082583610765565b915061083360208401610765565b90509250929050565b600181811c9082168061085057607f821691505b60208210810361087057634e487b7160e01b600052602260045260246000fd5b50919050565b634e487b7160e01b600052601160045260246000fd5b60006001820161089e5761089e610876565b5060010190565b808201808211156102f6576102f661087656fea26469706673582212207226c33caa7bd7a79cd5e9650265efe48c1c180390206f287e39103a3de27cb764736f6c63430008180033",
  "linkReferences": {},
  "deployedLinkReferences": {}
}