{
  "_format": "hh-sol-artifact-1",
  "contractName": "DepositReward",
  "sourceName": "contracts/DepositReward.sol",
  "abi": [
    {
      "inputs": [
        {
          "internalType": "contract IERC20",
          "name": "_tokenA",
          "type": "address"
        },
        {
          "internalType": "contract NFTB",
          "name": "_nftB",
          "type": "address"
        }
      ],
      "stateMutability": "nonpayable",
      "type": "constructor"
    },
    {
      "inputs": [
        {
          "internalType": "address",
          "name": "owner",
          "type": "address"
        }
      ],
      "name": "OwnableInvalidOwner",
      "type": "error"
    },
    {
      "inputs": [
        {
          "internalType": "address",
          "name": "account",
          "type": "address"
        }
      ],
      "name": "OwnableUnauthorizedAccount",
      "type": "error"
    },
    {
      "anonymous": false,
      "inputs": [
        {
          "indexed": false,
          "internalType": "uint256",
          "name": "newAPR",
          "type": "uint256"
        }
      ],
      "name": "APRUpdated",
      "type": "event"
    },
    {
      "anonymous": false,
      "inputs": [
        {
          "indexed": true,
          "internalType": "address",
          "name": "user",
          "type": "address"
        },
        {
          "indexed": false,
          "internalType": "uint256",
          "name": "amount",
          "type": "uint256"
        },
        {
          "indexed": false,
          "internalType": "uint256",
          "name": "depositTime",
          "type": "uint256"
        }
      ],
      "name": "DepositMade",
      "type": "event"
    },
    {
      "anonymous": false,
      "inputs": [
        {
          "indexed": true,
          "internalType": "address",
          "name": "previousOwner",
          "type": "address"
        },
        {
          "indexed": true,
          "internalType": "address",
          "name": "newOwner",
          "type": "address"
        }
      ],
      "name": "OwnershipTransferred",
      "type": "event"
    },
    {
      "anonymous": false,
      "inputs": [
        {
          "indexed": true,
          "internalType": "address",
          "name": "user",
          "type": "address"
        },
        {
          "indexed": false,
          "internalType": "uint256",
          "name": "reward",
          "type": "uint256"
        }
      ],
      "name": "RewardClaimed",
      "type": "event"
    },
    {
      "anonymous": false,
      "inputs": [
        {
          "indexed": true,
          "internalType": "address",
          "name": "user",
          "type": "address"
        },
        {
          "indexed": false,
          "internalType": "uint256",
          "name": "amount",
          "type": "uint256"
        }
      ],
      "name": "Withdraw",
      "type": "event"
    },
    {
      "inputs": [],
      "name": "LOCK_PERIOD",
      "outputs": [
        {
          "internalType": "uint256",
          "name": "",
          "type": "uint256"
        }
      ],
      "stateMutability": "view",
      "type": "function"
    },
    {
      "inputs": [],
      "name": "TOKEN_THRESHOLD",
      "outputs": [
        {
          "internalType": "uint256",
          "name": "",
          "type": "uint256"
        }
      ],
      "stateMutability": "view",
      "type": "function"
    },
    {
      "inputs": [],
      "name": "apr",
      "outputs": [
        {
          "internalType": "uint256",
          "name": "",
          "type": "uint256"
        }
      ],
      "stateMutability": "view",
      "type": "function"
    },
    {
      "inputs": [
        {
          "internalType": "uint256",
          "name": "index",
          "type": "uint256"
        }
      ],
      "name": "claimReward",
      "outputs": [],
      "stateMutability": "nonpayable",
      "type": "function"
    },
    {
      "inputs": [
        {
          "internalType": "uint256",
          "name": "amount",
          "type": "uint256"
        }
      ],
      "name": "deposit",
      "outputs": [],
      "stateMutability": "nonpayable",
      "type": "function"
    },
    {
      "inputs": [
        {
          "internalType": "address",
          "name": "",
          "type": "address"
        },
        {
          "internalType": "uint256",
          "name": "",
          "type": "uint256"
        }
      ],
      "name": "deposits",
      "outputs": [
        {
          "internalType": "uint256",
          "name": "amount",
          "type": "uint256"
        },
        {
          "internalType": "uint256",
          "name": "depositTime",
          "type": "uint256"
        },
        {
          "internalType": "uint256",
          "name": "apr",
          "type": "uint256"
        }
      ],
      "stateMutability": "view",
      "type": "function"
    },
    {
      "inputs": [
        {
          "internalType": "address",
          "name": "user",
          "type": "address"
        }
      ],
      "name": "getDeposits",
      "outputs": [
        {
          "components": [
            {
              "internalType": "uint256",
              "name": "amount",
              "type": "uint256"
            },
            {
              "internalType": "uint256",
              "name": "depositTime",
              "type": "uint256"
            },
            {
              "internalType": "uint256",
              "name": "apr",
              "type": "uint256"
            }
          ],
          "internalType": "struct DepositReward.Deposit[]",
          "name": "",
          "type": "tuple[]"
        }
      ],
      "stateMutability": "view",
      "type": "function"
    },
    {
      "inputs": [],
      "name": "nftB",
      "outputs": [
        {
          "internalType": "contract NFTB",
          "name": "",
          "type": "address"
        }
      ],
      "stateMutability": "view",
      "type": "function"
    },
    {
      "inputs": [],
      "name": "owner",
      "outputs": [
        {
          "internalType": "address",
          "name": "",
          "type": "address"
        }
      ],
      "stateMutability": "view",
      "type": "function"
    },
    {
      "inputs": [],
      "name": "renounceOwnership",
      "outputs": [],
      "stateMutability": "nonpayable",
      "type": "function"
    },
    {
      "inputs": [
        {
          "internalType": "uint256",
          "name": "newAPR",
          "type": "uint256"
        }
      ],
      "name": "setAPR",
      "outputs": [],
      "stateMutability": "nonpayable",
      "type": "function"
    },
    {
      "inputs": [],
      "name": "tokenA",
      "outputs": [
        {
          "internalType": "contract IERC20",
          "name": "",
          "type": "address"
        }
      ],
      "stateMutability": "view",
      "type": "function"
    },
    {
      "inputs": [
        {
          "internalType": "address",
          "name": "newOwner",
          "type": "address"
        }
      ],
      "name": "transferOwnership",
      "outputs": [],
      "stateMutability": "nonpayable",
      "type": "function"
    },
    {
      "inputs": [
        {
          "internalType": "uint256",
          "name": "index",
          "type": "uint256"
        }
      ],
      "name": "withdraw",
      "outputs": [],
      "stateMutability": "nonpayable",
      "type": "function"
    }
  ],
  "bytecode": "0x6080604052600860035534801561001557600080fd5b50604051610c5e380380610c5e833981016040819052610034916100fd565b338061005a57604051631e4fbdf760e01b81526000600482015260240160405180910390fd5b61006381610095565b50600180546001600160a01b039384166001600160a01b03199182161790915560028054929093169116179055610137565b600080546001600160a01b038381166001600160a01b0319831681178455604051919092169283917f8be0079c531659141344cd1fd0a4f28419497f9722a3daafe3b4186f6b6457e09190a35050565b6001600160a01b03811681146100fa57600080fd5b50565b6000806040838503121561011057600080fd5b825161011b816100e5565b602084015190925061012c816100e5565b809150509250929050565b610b18806101466000396000f3fe608060405234801561001057600080fd5b50600436106100ea5760003560e01c8063854303cf1161008c578063ae169a5011610066578063ae169a50146101c4578063b6b55f25146101d7578063d6d68177146101ea578063f2fde38b1461021857600080fd5b8063854303cf146101805780638da5cb5b1461019357806394f649dd146101a457600080fd5b80632f3a5d28116100c85780632f3a5d281461014b57806332e2cea81461015c57806357ded9c91461016f578063715018a61461017857600080fd5b80630fc63d10146100ef5780631820cabb1461011f5780632e1a7d4d14610136575b600080fd5b600154610102906001600160a01b031681565b6040516001600160a01b0390911681526020015b60405180910390f35b61012861012c81565b604051908152602001610116565b610149610144366004610939565b61022b565b005b61012869d3c21bcecceda100000081565b600254610102906001600160a01b031681565b61012860035481565b6101496103e2565b61014961018e366004610939565b6103f6565b6000546001600160a01b0316610102565b6101b76101b236600461096e565b610439565b6040516101169190610990565b6101496101d2366004610939565b6104cc565b6101496101e5366004610939565b61063e565b6101fd6101f83660046109e9565b61083f565b60408051938452602084019290925290820152606001610116565b61014961022636600461096e565b610881565b33600090815260046020526040812080548390811061024c5761024c610a13565b9060005260206000209060030201905060008160000154116102b55760405162461bcd60e51b815260206004820152601960248201527f4465706f73697420616c72656164792077697468647261776e0000000000000060448201526064015b60405180910390fd5b61012c81600101546102c79190610a3f565b4210156103105760405162461bcd60e51b8152602060048201526017602482015276151bdad95b9cc8185c99481cdd1a5b1b081b1bd8dad959604a1b60448201526064016102ac565b80546000825560015460405163a9059cbb60e01b8152336004820152602481018390526001600160a01b039091169063a9059cbb906044016020604051808303816000875af1158015610367573d6000803e3d6000fd5b505050506040513d601f19601f8201168201806040525081019061038b9190610a58565b6103a75760405162461bcd60e51b81526004016102ac90610a7a565b60405181815233907f884edad9ce6fa2440d8a54cc123490eb96d2768479d49ff9c7366125a9424364906020015b60405180910390a2505050565b6103ea6108bc565b6103f460006108e9565b565b6103fe6108bc565b60038190556040518181527f2ec8ccb96042321f3bbdd56e8e4e4339bc07c9c2021e14e18ef12f5db282b37a9060200160405180910390a150565b6001600160a01b0381166000908152600460209081526040808320805482518185028101850190935280835260609492939192909184015b828210156104c15783829060005260206000209060030201604051806060016040529081600082015481526020016001820154815260200160028201548152505081526020019060010190610471565b505050509050919050565b3360009081526004602052604081208054839081106104ed576104ed610a13565b9060005260206000209060030201905061012c816001015461050f9190610a3f565b4210156105585760405162461bcd60e51b8152602060048201526017602482015276151bdad95b9cc8185c99481cdd1a5b1b081b1bd8dad959604a1b60448201526064016102ac565b60006064826002015483600001546105709190610aa9565b61057a9190610ac0565b60015460405163a9059cbb60e01b8152336004820152602481018390529192506001600160a01b03169063a9059cbb906044016020604051808303816000875af11580156105cc573d6000803e3d6000fd5b505050506040513d601f19601f820116820180604052508101906105f09190610a58565b61060c5760405162461bcd60e51b81526004016102ac90610a7a565b60405181815233907f106f923f993c2149d49b4255ff723acafa1f2d94393f561d3eda32ae348f7241906020016103d5565b69d3c21bcecceda10000008110156106a35760405162461bcd60e51b815260206004820152602260248201527f4465706f736974206d757374206265206174206c6561737420314d20546f6b656044820152616e4160f01b60648201526084016102ac565b6001546040516323b872dd60e01b8152336004820152306024820152604481018390526001600160a01b03909116906323b872dd906064016020604051808303816000875af11580156106fa573d6000803e3d6000fd5b505050506040513d601f19601f8201168201806040525081019061071e9190610a58565b61073a5760405162461bcd60e51b81526004016102ac90610a7a565b33600081815260046020908152604080832081516060810183528681524281850181815260038054848701908152855460018082018855968a52988890209451989091029093019687555192860192909255516002909401939093558051858152918201929092527f0b05f0d1cd0819f155b8a61f60baf7767c1ee49d04aeaab701df236140eb93f9910160405180910390a269d3c21bcecceda1000000811061083c576002546040516335313c2160e11b81523360048201526001600160a01b0390911690636a62784290602401600060405180830381600087803b15801561082357600080fd5b505af1158015610837573d6000803e3d6000fd5b505050505b50565b6004602052816000526040600020818154811061085b57600080fd5b600091825260209091206003909102018054600182015460029092015490935090915083565b6108896108bc565b6001600160a01b0381166108b357604051631e4fbdf760e01b8152600060048201526024016102ac565b61083c816108e9565b6000546001600160a01b031633146103f45760405163118cdaa760e01b81523360048201526024016102ac565b600080546001600160a01b038381166001600160a01b0319831681178455604051919092169283917f8be0079c531659141344cd1fd0a4f28419497f9722a3daafe3b4186f6b6457e09190a35050565b60006020828403121561094b57600080fd5b5035919050565b80356001600160a01b038116811461096957600080fd5b919050565b60006020828403121561098057600080fd5b61098982610952565b9392505050565b602080825282518282018190526000919060409081850190868401855b828110156109dc57815180518552868101518786015285015185850152606090930192908501906001016109ad565b5091979650505050505050565b600080604083850312156109fc57600080fd5b610a0583610952565b946020939093013593505050565b634e487b7160e01b600052603260045260246000fd5b634e487b7160e01b600052601160045260246000fd5b80820180821115610a5257610a52610a29565b92915050565b600060208284031215610a6a57600080fd5b8151801515811461098957600080fd5b602080825260159082015274151bdad95b881d1c985b9cd9995c8819985a5b1959605a1b604082015260600190565b8082028115828204841417610a5257610a52610a29565b600082610add57634e487b7160e01b600052601260045260246000fd5b50049056fea2646970667358221220f296b7154435e2bcc5da05ae97ecc1fc196a8d1ba20703b55c59d9e04e2f251264736f6c63430008180033",
  "linkReferences": {},
  "deployedLinkReferences": {}
}