{
  "_format": "hh-sol-artifact-1",
  "contractName": "DepositReward",
  "sourceName": "contracts/DepositReward.sol",
  "abi": [
    {
      "inputs": [
        {
          "internalType": "contract IERC20",
          "name": "_tokenA",
          "type": "address"
        },
        {
          "internalType": "contract NFTB",
          "name": "_nftB",
          "type": "address"
        },
        {
          "internalType": "contract TokenA",
          "name": "_tokenAa",
          "type": "address"
        }
      ],
      "stateMutability": "nonpayable",
      "type": "constructor"
    },
    {
      "inputs": [
        {
          "internalType": "address",
          "name": "owner",
          "type": "address"
        }
      ],
      "name": "OwnableInvalidOwner",
      "type": "error"
    },
    {
      "inputs": [
        {
          "internalType": "address",
          "name": "account",
          "type": "address"
        }
      ],
      "name": "OwnableUnauthorizedAccount",
      "type": "error"
    },
    {
      "anonymous": false,
      "inputs": [
        {
          "indexed": false,
          "internalType": "uint256",
          "name": "newAPR",
          "type": "uint256"
        }
      ],
      "name": "APRUpdated",
      "type": "event"
    },
    {
      "anonymous": false,
      "inputs": [
        {
          "indexed": true,
          "internalType": "address",
          "name": "user",
          "type": "address"
        },
        {
          "indexed": false,
          "internalType": "uint256",
          "name": "amount",
          "type": "uint256"
        },
        {
          "indexed": false,
          "internalType": "uint256",
          "name": "depositTime",
          "type": "uint256"
        }
      ],
      "name": "DepositMade",
      "type": "event"
    },
    {
      "anonymous": false,
      "inputs": [
        {
          "indexed": true,
          "internalType": "address",
          "name": "previousOwner",
          "type": "address"
        },
        {
          "indexed": true,
          "internalType": "address",
          "name": "newOwner",
          "type": "address"
        }
      ],
      "name": "OwnershipTransferred",
      "type": "event"
    },
    {
      "anonymous": false,
      "inputs": [
        {
          "indexed": true,
          "internalType": "address",
          "name": "user",
          "type": "address"
        },
        {
          "indexed": false,
          "internalType": "uint256",
          "name": "reward",
          "type": "uint256"
        }
      ],
      "name": "RewardClaimed",
      "type": "event"
    },
    {
      "anonymous": false,
      "inputs": [
        {
          "indexed": true,
          "internalType": "address",
          "name": "user",
          "type": "address"
        },
        {
          "indexed": false,
          "internalType": "uint256",
          "name": "amount",
          "type": "uint256"
        }
      ],
      "name": "Withdraw",
      "type": "event"
    },
    {
      "inputs": [],
      "name": "LOCK_PERIOD",
      "outputs": [
        {
          "internalType": "uint256",
          "name": "",
          "type": "uint256"
        }
      ],
      "stateMutability": "view",
      "type": "function"
    },
    {
      "inputs": [],
      "name": "TOKEN_THRESHOLD",
      "outputs": [
        {
          "internalType": "uint256",
          "name": "",
          "type": "uint256"
        }
      ],
      "stateMutability": "view",
      "type": "function"
    },
    {
      "inputs": [],
      "name": "apr",
      "outputs": [
        {
          "internalType": "uint256",
          "name": "",
          "type": "uint256"
        }
      ],
      "stateMutability": "view",
      "type": "function"
    },
    {
      "inputs": [],
      "name": "claimReward",
      "outputs": [],
      "stateMutability": "nonpayable",
      "type": "function"
    },
    {
      "inputs": [
        {
          "internalType": "uint256",
          "name": "amount",
          "type": "uint256"
        }
      ],
      "name": "deposit",
      "outputs": [],
      "stateMutability": "nonpayable",
      "type": "function"
    },
    {
      "inputs": [
        {
          "internalType": "address",
          "name": "",
          "type": "address"
        },
        {
          "internalType": "uint256",
          "name": "",
          "type": "uint256"
        }
      ],
      "name": "deposits",
      "outputs": [
        {
          "internalType": "uint256",
          "name": "amount",
          "type": "uint256"
        },
        {
          "internalType": "uint256",
          "name": "depositTime",
          "type": "uint256"
        },
        {
          "internalType": "uint256",
          "name": "apr",
          "type": "uint256"
        }
      ],
      "stateMutability": "view",
      "type": "function"
    },
    {
      "inputs": [
        {
          "internalType": "address",
          "name": "user",
          "type": "address"
        }
      ],
      "name": "getDeposits",
      "outputs": [
        {
          "components": [
            {
              "internalType": "uint256",
              "name": "amount",
              "type": "uint256"
            },
            {
              "internalType": "uint256",
              "name": "depositTime",
              "type": "uint256"
            },
            {
              "internalType": "uint256",
              "name": "apr",
              "type": "uint256"
            }
          ],
          "internalType": "struct DepositReward.Deposit[]",
          "name": "",
          "type": "tuple[]"
        }
      ],
      "stateMutability": "view",
      "type": "function"
    },
    {
      "inputs": [],
      "name": "nftB",
      "outputs": [
        {
          "internalType": "contract NFTB",
          "name": "",
          "type": "address"
        }
      ],
      "stateMutability": "view",
      "type": "function"
    },
    {
      "inputs": [],
      "name": "owner",
      "outputs": [
        {
          "internalType": "address",
          "name": "",
          "type": "address"
        }
      ],
      "stateMutability": "view",
      "type": "function"
    },
    {
      "inputs": [],
      "name": "renounceOwnership",
      "outputs": [],
      "stateMutability": "nonpayable",
      "type": "function"
    },
    {
      "inputs": [
        {
          "internalType": "uint256",
          "name": "newAPR",
          "type": "uint256"
        }
      ],
      "name": "setAPR",
      "outputs": [],
      "stateMutability": "nonpayable",
      "type": "function"
    },
    {
      "inputs": [],
      "name": "tokenA",
      "outputs": [
        {
          "internalType": "contract IERC20",
          "name": "",
          "type": "address"
        }
      ],
      "stateMutability": "view",
      "type": "function"
    },
    {
      "inputs": [],
      "name": "tokenAa",
      "outputs": [
        {
          "internalType": "contract TokenA",
          "name": "",
          "type": "address"
        }
      ],
      "stateMutability": "view",
      "type": "function"
    },
    {
      "inputs": [
        {
          "internalType": "address",
          "name": "newOwner",
          "type": "address"
        }
      ],
      "name": "transferOwnership",
      "outputs": [],
      "stateMutability": "nonpayable",
      "type": "function"
    },
    {
      "inputs": [],
      "name": "withdraw",
      "outputs": [],
      "stateMutability": "nonpayable",
      "type": "function"
    }
  ],
  "bytecode": "0x6080604052600860035534801561001557600080fd5b50604051610d1b380380610d1b8339810160408190526100349161010e565b338061005a57604051631e4fbdf760e01b81526000600482015260240160405180910390fd5b610063816100a6565b50600180546001600160a01b039485166001600160a01b03199182161790915560028054938516938216939093179092556004805491909316911617905561015b565b600080546001600160a01b038381166001600160a01b0319831681178455604051919092169283917f8be0079c531659141344cd1fd0a4f28419497f9722a3daafe3b4186f6b6457e09190a35050565b6001600160a01b038116811461010b57600080fd5b50565b60008060006060848603121561012357600080fd5b835161012e816100f6565b602085015190935061013f816100f6565b6040850151909250610150816100f6565b809150509250925092565b610bb18061016a6000396000f3fe608060405234801561001057600080fd5b50600436106100f55760003560e01c8063854303cf11610097578063b88a802f11610066578063b88a802f146101d7578063d6d68177146101df578063f2fde38b1461020d578063f7f3b6571461022057600080fd5b8063854303cf146101805780638da5cb5b1461019357806394f649dd146101a4578063b6b55f25146101c457600080fd5b806332e2cea8116100d357806332e2cea8146101525780633ccfd60b1461016557806357ded9c91461016f578063715018a61461017857600080fd5b80630fc63d10146100fa5780631820cabb1461012a5780632f3a5d2814610141575b600080fd5b60015461010d906001600160a01b031681565b6040516001600160a01b0390911681526020015b60405180910390f35b61013361012c81565b604051908152602001610121565b61013369d3c21bcecceda100000081565b60025461010d906001600160a01b031681565b61016d610233565b005b61013360035481565b61016d610432565b61016d61018e3660046109ee565b610446565b6000546001600160a01b031661010d565b6101b76101b2366004610a23565b610489565b6040516101219190610a45565b61016d6101d23660046109ee565b61051c565b61016d61072d565b6101f26101ed366004610a9e565b6108f4565b60408051938452602084019290925290820152606001610121565b61016d61021b366004610a23565b610936565b60045461010d906001600160a01b031681565b6000805b336000908152600560205260409020548110156102c55733600090815260056020526040812080548390811061026f5761026f610ac8565b90600052602060002090600302019050600081600001541180156102a4575061012c81600101546102a09190610af4565b4210155b156102bc5780546102b59084610af4565b6000825592505b50600101610237565b50600081116103415760405162461bcd60e51b815260206004820152603d60248201527f4e6f20746f6b656e7320617661696c61626c6520666f7220776974686472617760448201527f616c206f7220746f6b656e7320617265207374696c6c206c6f636b656400000060648201526084015b60405180910390fd5b60015460405163a9059cbb60e01b8152336004820152602481018390526001600160a01b039091169063a9059cbb906044016020604051808303816000875af1158015610392573d6000803e3d6000fd5b505050506040513d601f19601f820116820180604052508101906103b69190610b0d565b6103fa5760405162461bcd60e51b8152602060048201526015602482015274151bdad95b881d1c985b9cd9995c8819985a5b1959605a1b6044820152606401610338565b60405181815233907f884edad9ce6fa2440d8a54cc123490eb96d2768479d49ff9c7366125a94243649060200160405180910390a250565b61043a610971565b610444600061099e565b565b61044e610971565b60038190556040518181527f2ec8ccb96042321f3bbdd56e8e4e4339bc07c9c2021e14e18ef12f5db282b37a9060200160405180910390a150565b6001600160a01b0381166000908152600560209081526040808320805482518185028101850190935280835260609492939192909184015b8282101561051157838290600052602060002090600302016040518060600160405290816000820154815260200160018201548152602001600282015481525050815260200190600101906104c1565b505050509050919050565b69d3c21bcecceda10000008110156105695760405162461bcd60e51b815260206004820152601060248201526f105b5bdd5b9d081d1bdbc81cdb585b1b60821b6044820152606401610338565b6001546040516323b872dd60e01b8152336004820152306024820152604481018390526001600160a01b03909116906323b872dd906064016020604051808303816000875af11580156105c0573d6000803e3d6000fd5b505050506040513d601f19601f820116820180604052508101906105e49190610b0d565b6106285760405162461bcd60e51b8152602060048201526015602482015274151bdad95b881d1c985b9cd9995c8819985a5b1959605a1b6044820152606401610338565b33600081815260056020908152604080832081516060810183528681524281850181815260038054848701908152855460018082018855968a52988890209451989091029093019687555192860192909255516002909401939093558051858152918201929092527f0b05f0d1cd0819f155b8a61f60baf7767c1ee49d04aeaab701df236140eb93f9910160405180910390a269d3c21bcecceda1000000811061072a576002546040516335313c2160e11b81523360048201526001600160a01b0390911690636a62784290602401600060405180830381600087803b15801561071157600080fd5b505af1158015610725573d6000803e3d6000fd5b505050505b50565b60006301e13380815b336000908152600560205260409020548110156108055733600090815260056020526040812080548390811061076e5761076e610ac8565b9060005260206000209060030201905061012c81600101546107909190610af4565b421015801561079f5750805415155b156107fc5760008160010154426107b69190610b2f565b905060006107c5856064610b42565b6002840154845484916107d791610b42565b6107e19190610b42565b6107eb9190610b59565b90506107f78187610af4565b955050505b50600101610736565b50600082116108565760405162461bcd60e51b815260206004820152601d60248201527f4e6f207265776172647320617661696c61626c6520746f20636c61696d0000006044820152606401610338565b6004805460405163083965f560e11b81523392810192909252602482018490526001600160a01b031690631072cbea90604401600060405180830381600087803b1580156108a357600080fd5b505af11580156108b7573d6000803e3d6000fd5b50506040518481523392507f106f923f993c2149d49b4255ff723acafa1f2d94393f561d3eda32ae348f7241915060200160405180910390a25050565b6005602052816000526040600020818154811061091057600080fd5b600091825260209091206003909102018054600182015460029092015490935090915083565b61093e610971565b6001600160a01b03811661096857604051631e4fbdf760e01b815260006004820152602401610338565b61072a8161099e565b6000546001600160a01b031633146104445760405163118cdaa760e01b8152336004820152602401610338565b600080546001600160a01b038381166001600160a01b0319831681178455604051919092169283917f8be0079c531659141344cd1fd0a4f28419497f9722a3daafe3b4186f6b6457e09190a35050565b600060208284031215610a0057600080fd5b5035919050565b80356001600160a01b0381168114610a1e57600080fd5b919050565b600060208284031215610a3557600080fd5b610a3e82610a07565b9392505050565b602080825282518282018190526000919060409081850190868401855b82811015610a915781518051855286810151878601528501518585015260609093019290850190600101610a62565b5091979650505050505050565b60008060408385031215610ab157600080fd5b610aba83610a07565b946020939093013593505050565b634e487b7160e01b600052603260045260246000fd5b634e487b7160e01b600052601160045260246000fd5b80820180821115610b0757610b07610ade565b92915050565b600060208284031215610b1f57600080fd5b81518015158114610a3e57600080fd5b81810381811115610b0757610b07610ade565b8082028115828204841417610b0757610b07610ade565b600082610b7657634e487b7160e01b600052601260045260246000fd5b50049056fea264697066735822122081287252f94815650bd70d27c1f4870b2613af279215d6bfca389a56a3b9830c64736f6c63430008180033",
  "linkReferences": {},
  "deployedLinkReferences": {}
}