{
  "_format": "hh-sol-artifact-1",
  "contractName": "DepositReward",
  "sourceName": "contracts/DepositReward.sol",
  "abi": [
    {
      "inputs": [
        {
          "internalType": "contract IERC20",
          "name": "_tokenA",
          "type": "address"
        },
        {
          "internalType": "contract NFTB",
          "name": "_nftB",
          "type": "address"
        },
        {
          "internalType": "contract TokenA",
          "name": "_token_A",
          "type": "address"
        }
      ],
      "stateMutability": "nonpayable",
      "type": "constructor"
    },
    {
      "inputs": [
        {
          "internalType": "address",
          "name": "owner",
          "type": "address"
        }
      ],
      "name": "OwnableInvalidOwner",
      "type": "error"
    },
    {
      "inputs": [
        {
          "internalType": "address",
          "name": "account",
          "type": "address"
        }
      ],
      "name": "OwnableUnauthorizedAccount",
      "type": "error"
    },
    {
      "anonymous": false,
      "inputs": [
        {
          "indexed": false,
          "internalType": "uint256",
          "name": "newAPR",
          "type": "uint256"
        }
      ],
      "name": "APRUpdated",
      "type": "event"
    },
    {
      "anonymous": false,
      "inputs": [
        {
          "indexed": true,
          "internalType": "address",
          "name": "user",
          "type": "address"
        },
        {
          "indexed": false,
          "internalType": "uint256",
          "name": "amount",
          "type": "uint256"
        },
        {
          "indexed": false,
          "internalType": "uint256",
          "name": "depositTime",
          "type": "uint256"
        }
      ],
      "name": "DepositMade",
      "type": "event"
    },
    {
      "anonymous": false,
      "inputs": [
        {
          "indexed": true,
          "internalType": "address",
          "name": "user",
          "type": "address"
        },
        {
          "indexed": false,
          "internalType": "uint256",
          "name": "tokenId",
          "type": "uint256"
        }
      ],
      "name": "NFTBDeposited",
      "type": "event"
    },
    {
      "anonymous": false,
      "inputs": [
        {
          "indexed": true,
          "internalType": "address",
          "name": "user",
          "type": "address"
        },
        {
          "indexed": false,
          "internalType": "uint256",
          "name": "tokenId",
          "type": "uint256"
        }
      ],
      "name": "NFTBMinted",
      "type": "event"
    },
    {
      "anonymous": false,
      "inputs": [
        {
          "indexed": true,
          "internalType": "address",
          "name": "user",
          "type": "address"
        },
        {
          "indexed": false,
          "internalType": "uint256",
          "name": "tokenId",
          "type": "uint256"
        }
      ],
      "name": "NFTBWithdrawn",
      "type": "event"
    },
    {
      "anonymous": false,
      "inputs": [
        {
          "indexed": true,
          "internalType": "address",
          "name": "previousOwner",
          "type": "address"
        },
        {
          "indexed": true,
          "internalType": "address",
          "name": "newOwner",
          "type": "address"
        }
      ],
      "name": "OwnershipTransferred",
      "type": "event"
    },
    {
      "anonymous": false,
      "inputs": [
        {
          "indexed": true,
          "internalType": "address",
          "name": "user",
          "type": "address"
        },
        {
          "indexed": false,
          "internalType": "uint256",
          "name": "reward",
          "type": "uint256"
        }
      ],
      "name": "RewardClaimed",
      "type": "event"
    },
    {
      "anonymous": false,
      "inputs": [
        {
          "indexed": true,
          "internalType": "address",
          "name": "user",
          "type": "address"
        },
        {
          "indexed": false,
          "internalType": "uint256",
          "name": "amount",
          "type": "uint256"
        }
      ],
      "name": "Withdraw",
      "type": "event"
    },
    {
      "inputs": [],
      "name": "ALL_TOKEN_REWARD",
      "outputs": [
        {
          "internalType": "uint256",
          "name": "",
          "type": "uint256"
        }
      ],
      "stateMutability": "view",
      "type": "function"
    },
    {
      "inputs": [],
      "name": "LOCK_PERIOD",
      "outputs": [
        {
          "internalType": "uint256",
          "name": "",
          "type": "uint256"
        }
      ],
      "stateMutability": "view",
      "type": "function"
    },
    {
      "inputs": [],
      "name": "TOKEN_THRESHOLD",
      "outputs": [
        {
          "internalType": "uint256",
          "name": "",
          "type": "uint256"
        }
      ],
      "stateMutability": "view",
      "type": "function"
    },
    {
      "inputs": [],
      "name": "baseAPR",
      "outputs": [
        {
          "internalType": "uint256",
          "name": "",
          "type": "uint256"
        }
      ],
      "stateMutability": "view",
      "type": "function"
    },
    {
      "inputs": [],
      "name": "claimReward",
      "outputs": [],
      "stateMutability": "nonpayable",
      "type": "function"
    },
    {
      "inputs": [
        {
          "internalType": "uint256",
          "name": "amount",
          "type": "uint256"
        }
      ],
      "name": "deposit",
      "outputs": [],
      "stateMutability": "nonpayable",
      "type": "function"
    },
    {
      "inputs": [
        {
          "internalType": "uint256",
          "name": "tokenId",
          "type": "uint256"
        }
      ],
      "name": "depositNFTB",
      "outputs": [],
      "stateMutability": "nonpayable",
      "type": "function"
    },
    {
      "inputs": [
        {
          "internalType": "address",
          "name": "",
          "type": "address"
        },
        {
          "internalType": "uint256",
          "name": "",
          "type": "uint256"
        }
      ],
      "name": "deposits",
      "outputs": [
        {
          "internalType": "uint256",
          "name": "amount",
          "type": "uint256"
        },
        {
          "internalType": "uint256",
          "name": "depositTime",
          "type": "uint256"
        },
        {
          "internalType": "uint256",
          "name": "aprAtDeposit",
          "type": "uint256"
        },
        {
          "internalType": "uint256",
          "name": "claimedReward",
          "type": "uint256"
        },
        {
          "internalType": "bool",
          "name": "rewardClaimed",
          "type": "bool"
        }
      ],
      "stateMutability": "view",
      "type": "function"
    },
    {
      "inputs": [
        {
          "internalType": "address",
          "name": "user",
          "type": "address"
        }
      ],
      "name": "getDeposits",
      "outputs": [
        {
          "components": [
            {
              "internalType": "uint256",
              "name": "amount",
              "type": "uint256"
            },
            {
              "internalType": "uint256",
              "name": "depositTime",
              "type": "uint256"
            },
            {
              "internalType": "uint256",
              "name": "aprAtDeposit",
              "type": "uint256"
            },
            {
              "internalType": "uint256",
              "name": "claimedReward",
              "type": "uint256"
            },
            {
              "internalType": "bool",
              "name": "rewardClaimed",
              "type": "bool"
            }
          ],
          "internalType": "struct DepositReward.Deposit[]",
          "name": "",
          "type": "tuple[]"
        }
      ],
      "stateMutability": "view",
      "type": "function"
    },
    {
      "inputs": [
        {
          "internalType": "address",
          "name": "user",
          "type": "address"
        }
      ],
      "name": "getUserAPR",
      "outputs": [
        {
          "internalType": "uint256",
          "name": "",
          "type": "uint256"
        }
      ],
      "stateMutability": "view",
      "type": "function"
    },
    {
      "inputs": [],
      "name": "nftB",
      "outputs": [
        {
          "internalType": "contract NFTB",
          "name": "",
          "type": "address"
        }
      ],
      "stateMutability": "view",
      "type": "function"
    },
    {
      "inputs": [
        {
          "internalType": "address",
          "name": "operator",
          "type": "address"
        },
        {
          "internalType": "address",
          "name": "from",
          "type": "address"
        },
        {
          "internalType": "uint256",
          "name": "tokenId",
          "type": "uint256"
        },
        {
          "internalType": "bytes",
          "name": "data",
          "type": "bytes"
        }
      ],
      "name": "onERC721Received",
      "outputs": [
        {
          "internalType": "bytes4",
          "name": "",
          "type": "bytes4"
        }
      ],
      "stateMutability": "pure",
      "type": "function"
    },
    {
      "inputs": [],
      "name": "owner",
      "outputs": [
        {
          "internalType": "address",
          "name": "",
          "type": "address"
        }
      ],
      "stateMutability": "view",
      "type": "function"
    },
    {
      "inputs": [],
      "name": "renounceOwnership",
      "outputs": [],
      "stateMutability": "nonpayable",
      "type": "function"
    },
    {
      "inputs": [
        {
          "internalType": "uint256",
          "name": "newAPR",
          "type": "uint256"
        }
      ],
      "name": "setBaseAPR",
      "outputs": [],
      "stateMutability": "nonpayable",
      "type": "function"
    },
    {
      "inputs": [],
      "name": "tokenA",
      "outputs": [
        {
          "internalType": "contract IERC20",
          "name": "",
          "type": "address"
        }
      ],
      "stateMutability": "view",
      "type": "function"
    },
    {
      "inputs": [],
      "name": "token_A",
      "outputs": [
        {
          "internalType": "contract TokenA",
          "name": "",
          "type": "address"
        }
      ],
      "stateMutability": "view",
      "type": "function"
    },
    {
      "inputs": [
        {
          "internalType": "address",
          "name": "newOwner",
          "type": "address"
        }
      ],
      "name": "transferOwnership",
      "outputs": [],
      "stateMutability": "nonpayable",
      "type": "function"
    },
    {
      "inputs": [
        {
          "internalType": "address",
          "name": "",
          "type": "address"
        }
      ],
      "name": "userAPR",
      "outputs": [
        {
          "internalType": "uint256",
          "name": "",
          "type": "uint256"
        }
      ],
      "stateMutability": "view",
      "type": "function"
    },
    {
      "inputs": [],
      "name": "withdraw",
      "outputs": [],
      "stateMutability": "nonpayable",
      "type": "function"
    },
    {
      "inputs": [
        {
          "internalType": "uint256",
          "name": "tokenId",
          "type": "uint256"
        }
      ],
      "name": "withdrawNFTB",
      "outputs": [],
      "stateMutability": "nonpayable",
      "type": "function"
    }
  ],
  "bytecode": "0x608060405260086003553480156200001657600080fd5b50604051620013113803806200131183398101604081905262000039916200017c565b33806200006057604051631e4fbdf760e01b81526000600482015260240160405180910390fd5b6200006b8162000113565b50600180546001600160a01b038581166001600160a01b03199283161790925560028054858416908316179055600480549284169290911682178155604051630f38ca0d60e31b815230918101919091526a52b7d2dcc80cd2e400000060248201526379c6506890604401600060405180830381600087803b158015620000f157600080fd5b505af115801562000106573d6000803e3d6000fd5b50505050505050620001d0565b600080546001600160a01b038381166001600160a01b0319831681178455604051919092169283917f8be0079c531659141344cd1fd0a4f28419497f9722a3daafe3b4186f6b6457e09190a35050565b6001600160a01b03811681146200017957600080fd5b50565b6000806000606084860312156200019257600080fd5b83516200019f8162000163565b6020850151909350620001b28162000163565b6040850151909250620001c58162000163565b809150509250925092565b61113180620001e06000396000f3fe608060405234801561001057600080fd5b50600436106101375760003560e01c8063715018a6116100b8578063bb98b10e1161007c578063bb98b10e1461028c578063d6d681771461029e578063f2fde38b146102db578063f453a8f4146102ee578063f53fdb1514610301578063fc06571b1461032a57600080fd5b8063715018a6146102385780638da5cb5b1461024057806394f649dd14610251578063b6b55f2514610271578063b88a802f1461028457600080fd5b80633ccfd60b116100ff5780633ccfd60b146101df578063411110f3146101e957806358ac0e80146101fc57806359d20574146102055780635fba7f751461022557600080fd5b80630fc63d101461013c578063150b7a021461016c5780631820cabb146101a45780632f3a5d28146101bb57806332e2cea8146101cc575b600080fd5b60015461014f906001600160a01b031681565b6040516001600160a01b0390911681526020015b60405180910390f35b61018b61017a366004610e84565b630a85bd0160e11b95945050505050565b6040516001600160e01b03199091168152602001610163565b6101ad61012c81565b604051908152602001610163565b6101ad69d3c21bcecceda100000081565b60025461014f906001600160a01b031681565b6101e761033d565b005b60045461014f906001600160a01b031681565b6101ad60035481565b6101ad610213366004610f23565b60066020526000908152604090205481565b6101e7610233366004610f47565b6105a1565b6101e76105e4565b6000546001600160a01b031661014f565b61026461025f366004610f23565b6105f8565b6040516101639190610f60565b6101e761027f366004610f47565b61069e565b6101e76108af565b6101ad6a52b7d2dcc80cd2e400000081565b6102b16102ac366004610fd0565b610a62565b6040805195865260208601949094529284019190915260608301521515608082015260a001610163565b6101e76102e9366004610f23565b610ab3565b6101e76102fc366004610f47565b610af1565b6101ad61030f366004610f23565b6001600160a01b031660009081526006602052604090205490565b6101e7610338366004610f47565b610bd2565b60006301e13380815b336000908152600560205260409020548110156104655733600090815260056020526040812080548390811061037e5761037e610ffc565b90600052602060002090600502019050600081600001541180156103b3575061012c81600101546103af9190611028565b4210155b1561045c5760008160010154426103ca9190611041565b905060006103d9856064611054565b600354845484916103e991611054565b6103f39190611054565b6103fd919061106b565b905060008184600001546104119190611028565b600485015490915060ff161561043457835461042d9088611028565b9650610441565b61043e8188611028565b96505b506000835560038301555060048101805460ff191660011790555b50600101610346565b50600082116104d65760405162461bcd60e51b815260206004820152603260248201527f4e6f20746f6b656e7320617661696c61626c6520666f72207769746864726177604482015271185b081bdc881cdd1a5b1b081b1bd8dad95960721b60648201526084015b60405180910390fd5b60015460405163a9059cbb60e01b8152336004820152602481018490526001600160a01b039091169063a9059cbb906044016020604051808303816000875af1158015610527573d6000803e3d6000fd5b505050506040513d601f19601f8201168201806040525081019061054b919061108d565b6105675760405162461bcd60e51b81526004016104cd906110af565b60405182815233907f884edad9ce6fa2440d8a54cc123490eb96d2768479d49ff9c7366125a9424364906020015b60405180910390a25050565b6105a9610d69565b60038190556040518181527f2ec8ccb96042321f3bbdd56e8e4e4339bc07c9c2021e14e18ef12f5db282b37a9060200160405180910390a150565b6105ec610d69565b6105f66000610d96565b565b6001600160a01b0381166000908152600560209081526040808320805482518185028101850190935280835260609492939192909184015b828210156106935760008481526020908190206040805160a081018252600586029092018054835260018082015484860152600282015492840192909252600381015460608401526004015460ff16151560808301529083529092019101610630565b505050509050919050565b69d3c21bcecceda10000008110156106eb5760405162461bcd60e51b815260206004820152601060248201526f105b5bdd5b9d081d1bdbc81cdb585b1b60821b60448201526064016104cd565b6001546040516323b872dd60e01b8152336004820152306024820152604481018390526001600160a01b03909116906323b872dd906064016020604051808303816000875af1158015610742573d6000803e3d6000fd5b505050506040513d601f19601f82011682018060405250810190610766919061108d565b6107825760405162461bcd60e51b81526004016104cd906110af565b336000908152600660209081526040808320546005808452828520835160a081018552878152428187019081529481018481526060820188815260808301898152845460018082018755958b5298909920925197909402909101958655935190850155915160028401559051600383015591516004909101805460ff191691151591909117905569d3c21bcecceda10000008210610878576002546040516335313c2160e11b81523360048201526001600160a01b0390911690636a62784290602401600060405180830381600087803b15801561085f57600080fd5b505af1158015610873573d6000803e3d6000fd5b505050505b6040805183815242602082015233917f0b05f0d1cd0819f155b8a61f60baf7767c1ee49d04aeaab701df236140eb93f99101610595565b60006301e13380815b3360009081526005602052604090205481101561099e573360009081526005602052604081208054839081106108f0576108f0610ffc565b9060005260206000209060050201905061012c81600101546109129190611028565b42101580156109215750805415155b156109955760008160010154426109389190611041565b9050610945846064611054565b6003548354839161095591611054565b61095f9190611054565b610969919061106b565b94508482600301600082825461097f9190611028565b90915550505060048101805460ff191660011790555b506001016108b8565b5060015460405163a9059cbb60e01b8152336004820152602481018490526001600160a01b039091169063a9059cbb906044016020604051808303816000875af11580156109f0573d6000803e3d6000fd5b505050506040513d601f19601f82011682018060405250810190610a14919061108d565b610a305760405162461bcd60e51b81526004016104cd906110af565b60405182815233907f106f923f993c2149d49b4255ff723acafa1f2d94393f561d3eda32ae348f724190602001610595565b60056020528160005260406000208181548110610a7e57600080fd5b600091825260209091206005909102018054600182015460028301546003840154600490940154929550909350919060ff1685565b610abb610d69565b6001600160a01b038116610ae557604051631e4fbdf760e01b8152600060048201526024016104cd565b610aee81610d96565b50565b600254604051632142170760e11b8152336004820152306024820152604481018390526001600160a01b03909116906342842e0e90606401600060405180830381600087803b158015610b4357600080fd5b505af1158015610b57573d6000803e3d6000fd5b5050336000908152600660205260409020549150610b729050565b610b7d906002611028565b33600081815260066020526040902091909155610b9990610de6565b60405181815233907f63bf67b983bdd9b528503089a5d33173057e3ed0027471a659a2adc3664f1669906020015b60405180910390a250565b6002546040516331a9108f60e11b81526004810183905230916001600160a01b031690636352211e90602401602060405180830381865afa158015610c1b573d6000803e3d6000fd5b505050506040513d601f19601f82011682018060405250810190610c3f91906110de565b6001600160a01b031614610c955760405162461bcd60e51b815260206004820152601e60248201527f436f6e747261637420646f65736e2774206f776e2074686973204e465442000060448201526064016104cd565b600254604051632142170760e11b8152306004820152336024820152604481018390526001600160a01b03909116906342842e0e90606401600060405180830381600087803b158015610ce757600080fd5b505af1158015610cfb573d6000803e3d6000fd5b505033600090815260066020526040902054610d1b925060029150611041565b33600081815260066020526040902091909155610d3790610de6565b60405181815233907f3e424a2a8d035c5fa51fc03b4074e5298cd257a8cad4223aa4855616d92e501c90602001610bc7565b6000546001600160a01b031633146105f65760405163118cdaa760e01b81523360048201526024016104cd565b600080546001600160a01b038381166001600160a01b0319831681178455604051919092169283917f8be0079c531659141344cd1fd0a4f28419497f9722a3daafe3b4186f6b6457e09190a35050565b6001600160a01b038116600090815260066020526040812054905b6001600160a01b038316600090815260056020526040902054811015610e6a576001600160a01b0383166000908152600560205260409020805483919083908110610e4e57610e4e610ffc565b6000918252602090912060026005909202010155600101610e01565b505050565b6001600160a01b0381168114610aee57600080fd5b600080600080600060808688031215610e9c57600080fd5b8535610ea781610e6f565b94506020860135610eb781610e6f565b935060408601359250606086013567ffffffffffffffff80821115610edb57600080fd5b818801915088601f830112610eef57600080fd5b813581811115610efe57600080fd5b896020828501011115610f1057600080fd5b9699959850939650602001949392505050565b600060208284031215610f3557600080fd5b8135610f4081610e6f565b9392505050565b600060208284031215610f5957600080fd5b5035919050565b602080825282518282018190526000919060409081850190868401855b82811015610fc357815180518552868101518786015285810151868601526060808201519086015260809081015115159085015260a09093019290850190600101610f7d565b5091979650505050505050565b60008060408385031215610fe357600080fd5b8235610fee81610e6f565b946020939093013593505050565b634e487b7160e01b600052603260045260246000fd5b634e487b7160e01b600052601160045260246000fd5b8082018082111561103b5761103b611012565b92915050565b8181038181111561103b5761103b611012565b808202811582820484141761103b5761103b611012565b60008261108857634e487b7160e01b600052601260045260246000fd5b500490565b60006020828403121561109f57600080fd5b81518015158114610f4057600080fd5b602080825260159082015274151bdad95b881d1c985b9cd9995c8819985a5b1959605a1b604082015260600190565b6000602082840312156110f057600080fd5b8151610f4081610e6f56fea264697066735822122079f705d3528976b66381891f6209c1bdc04f6053411fd1b2082f6c4217c941c664736f6c63430008180033",
  "linkReferences": {},
  "deployedLinkReferences": {}
}