{
  "_format": "hh-sol-artifact-1",
  "contractName": "DepositReward",
  "sourceName": "contracts/DepositReward.sol",
  "abi": [
    {
      "inputs": [
        {
          "internalType": "contract IERC20",
          "name": "_tokenA",
          "type": "address"
        },
        {
          "internalType": "contract NFTB",
          "name": "_nftB",
          "type": "address"
        }
      ],
      "stateMutability": "nonpayable",
      "type": "constructor"
    },
    {
      "inputs": [
        {
          "internalType": "address",
          "name": "owner",
          "type": "address"
        }
      ],
      "name": "OwnableInvalidOwner",
      "type": "error"
    },
    {
      "inputs": [
        {
          "internalType": "address",
          "name": "account",
          "type": "address"
        }
      ],
      "name": "OwnableUnauthorizedAccount",
      "type": "error"
    },
    {
      "anonymous": false,
      "inputs": [
        {
          "indexed": false,
          "internalType": "uint256",
          "name": "newAPR",
          "type": "uint256"
        }
      ],
      "name": "APRUpdated",
      "type": "event"
    },
    {
      "anonymous": false,
      "inputs": [
        {
          "indexed": true,
          "internalType": "address",
          "name": "user",
          "type": "address"
        },
        {
          "indexed": false,
          "internalType": "uint256",
          "name": "amount",
          "type": "uint256"
        },
        {
          "indexed": false,
          "internalType": "uint256",
          "name": "depositTime",
          "type": "uint256"
        }
      ],
      "name": "DepositMade",
      "type": "event"
    },
    {
      "anonymous": false,
      "inputs": [
        {
          "indexed": true,
          "internalType": "address",
          "name": "previousOwner",
          "type": "address"
        },
        {
          "indexed": true,
          "internalType": "address",
          "name": "newOwner",
          "type": "address"
        }
      ],
      "name": "OwnershipTransferred",
      "type": "event"
    },
    {
      "anonymous": false,
      "inputs": [
        {
          "indexed": true,
          "internalType": "address",
          "name": "user",
          "type": "address"
        },
        {
          "indexed": false,
          "internalType": "uint256",
          "name": "reward",
          "type": "uint256"
        }
      ],
      "name": "RewardClaimed",
      "type": "event"
    },
    {
      "anonymous": false,
      "inputs": [
        {
          "indexed": true,
          "internalType": "address",
          "name": "user",
          "type": "address"
        },
        {
          "indexed": false,
          "internalType": "uint256",
          "name": "amount",
          "type": "uint256"
        }
      ],
      "name": "Withdraw",
      "type": "event"
    },
    {
      "inputs": [],
      "name": "LOCK_PERIOD",
      "outputs": [
        {
          "internalType": "uint256",
          "name": "",
          "type": "uint256"
        }
      ],
      "stateMutability": "view",
      "type": "function"
    },
    {
      "inputs": [],
      "name": "TOKEN_THRESHOLD",
      "outputs": [
        {
          "internalType": "uint256",
          "name": "",
          "type": "uint256"
        }
      ],
      "stateMutability": "view",
      "type": "function"
    },
    {
      "inputs": [],
      "name": "apr",
      "outputs": [
        {
          "internalType": "uint256",
          "name": "",
          "type": "uint256"
        }
      ],
      "stateMutability": "view",
      "type": "function"
    },
    {
      "inputs": [
        {
          "internalType": "uint256",
          "name": "index",
          "type": "uint256"
        }
      ],
      "name": "claimReward",
      "outputs": [],
      "stateMutability": "nonpayable",
      "type": "function"
    },
    {
      "inputs": [
        {
          "internalType": "uint256",
          "name": "amount",
          "type": "uint256"
        }
      ],
      "name": "deposit",
      "outputs": [],
      "stateMutability": "nonpayable",
      "type": "function"
    },
    {
      "inputs": [
        {
          "internalType": "address",
          "name": "",
          "type": "address"
        },
        {
          "internalType": "uint256",
          "name": "",
          "type": "uint256"
        }
      ],
      "name": "deposits",
      "outputs": [
        {
          "internalType": "uint256",
          "name": "amount",
          "type": "uint256"
        },
        {
          "internalType": "uint256",
          "name": "depositTime",
          "type": "uint256"
        },
        {
          "internalType": "uint256",
          "name": "apr",
          "type": "uint256"
        }
      ],
      "stateMutability": "view",
      "type": "function"
    },
    {
      "inputs": [
        {
          "internalType": "address",
          "name": "user",
          "type": "address"
        }
      ],
      "name": "getDeposits",
      "outputs": [
        {
          "components": [
            {
              "internalType": "uint256",
              "name": "amount",
              "type": "uint256"
            },
            {
              "internalType": "uint256",
              "name": "depositTime",
              "type": "uint256"
            },
            {
              "internalType": "uint256",
              "name": "apr",
              "type": "uint256"
            }
          ],
          "internalType": "struct DepositReward.Deposit[]",
          "name": "",
          "type": "tuple[]"
        }
      ],
      "stateMutability": "view",
      "type": "function"
    },
    {
      "inputs": [],
      "name": "nftB",
      "outputs": [
        {
          "internalType": "contract NFTB",
          "name": "",
          "type": "address"
        }
      ],
      "stateMutability": "view",
      "type": "function"
    },
    {
      "inputs": [],
      "name": "owner",
      "outputs": [
        {
          "internalType": "address",
          "name": "",
          "type": "address"
        }
      ],
      "stateMutability": "view",
      "type": "function"
    },
    {
      "inputs": [],
      "name": "renounceOwnership",
      "outputs": [],
      "stateMutability": "nonpayable",
      "type": "function"
    },
    {
      "inputs": [
        {
          "internalType": "uint256",
          "name": "newAPR",
          "type": "uint256"
        }
      ],
      "name": "setAPR",
      "outputs": [],
      "stateMutability": "nonpayable",
      "type": "function"
    },
    {
      "inputs": [],
      "name": "tokenA",
      "outputs": [
        {
          "internalType": "contract IERC20",
          "name": "",
          "type": "address"
        }
      ],
      "stateMutability": "view",
      "type": "function"
    },
    {
      "inputs": [
        {
          "internalType": "address",
          "name": "newOwner",
          "type": "address"
        }
      ],
      "name": "transferOwnership",
      "outputs": [],
      "stateMutability": "nonpayable",
      "type": "function"
    },
    {
      "inputs": [
        {
          "internalType": "uint256",
          "name": "index",
          "type": "uint256"
        }
      ],
      "name": "withdraw",
      "outputs": [],
      "stateMutability": "nonpayable",
      "type": "function"
    }
  ],
  "bytecode": "0x6080604052600860035534801561001557600080fd5b50604051610c4c380380610c4c833981016040819052610034916100fd565b338061005a57604051631e4fbdf760e01b81526000600482015260240160405180910390fd5b61006381610095565b50600180546001600160a01b039384166001600160a01b03199182161790915560028054929093169116179055610137565b600080546001600160a01b038381166001600160a01b0319831681178455604051919092169283917f8be0079c531659141344cd1fd0a4f28419497f9722a3daafe3b4186f6b6457e09190a35050565b6001600160a01b03811681146100fa57600080fd5b50565b6000806040838503121561011057600080fd5b825161011b816100e5565b602084015190925061012c816100e5565b809150509250929050565b610b06806101466000396000f3fe608060405234801561001057600080fd5b50600436106100ea5760003560e01c8063854303cf1161008c578063ae169a5011610066578063ae169a50146101c4578063b6b55f25146101d7578063d6d68177146101ea578063f2fde38b1461021857600080fd5b8063854303cf146101805780638da5cb5b1461019357806394f649dd146101a457600080fd5b80632f3a5d28116100c85780632f3a5d281461014b57806332e2cea81461015c57806357ded9c91461016f578063715018a61461017857600080fd5b80630fc63d10146100ef5780631820cabb1461011f5780632e1a7d4d14610136575b600080fd5b600154610102906001600160a01b031681565b6040516001600160a01b0390911681526020015b60405180910390f35b61012861012c81565b604051908152602001610116565b610149610144366004610927565b61022b565b005b61012869d3c21bcecceda100000081565b600254610102906001600160a01b031681565b61012860035481565b6101496103e8565b61014961018e366004610927565b6103fc565b6000546001600160a01b0316610102565b6101b76101b236600461095c565b61043f565b604051610116919061097e565b6101496101d2366004610927565b6104d2565b6101496101e5366004610927565b610644565b6101fd6101f83660046109d7565b61082d565b60408051938452602084019290925290820152606001610116565b61014961022636600461095c565b61086f565b33600090815260046020526040812080548390811061024c5761024c610a01565b9060005260206000209060030201905060008160000154116102b55760405162461bcd60e51b815260206004820152601960248201527f4465706f73697420616c72656164792077697468647261776e0000000000000060448201526064015b60405180910390fd5b61012c81600101546102c79190610a2d565b4210156103105760405162461bcd60e51b8152602060048201526017602482015276151bdad95b9cc8185c99481cdd1a5b1b081b1bd8dad959604a1b60448201526064016102ac565b8054600082556001546040516323b872dd60e01b8152336004820152306024820152604481018390526001600160a01b03909116906323b872dd906064016020604051808303816000875af115801561036d573d6000803e3d6000fd5b505050506040513d601f19601f820116820180604052508101906103919190610a46565b6103ad5760405162461bcd60e51b81526004016102ac90610a68565b60405181815233907f884edad9ce6fa2440d8a54cc123490eb96d2768479d49ff9c7366125a9424364906020015b60405180910390a2505050565b6103f06108aa565b6103fa60006108d7565b565b6104046108aa565b60038190556040518181527f2ec8ccb96042321f3bbdd56e8e4e4339bc07c9c2021e14e18ef12f5db282b37a9060200160405180910390a150565b6001600160a01b0381166000908152600460209081526040808320805482518185028101850190935280835260609492939192909184015b828210156104c75783829060005260206000209060030201604051806060016040529081600082015481526020016001820154815260200160028201548152505081526020019060010190610477565b505050509050919050565b3360009081526004602052604081208054839081106104f3576104f3610a01565b9060005260206000209060030201905061012c81600101546105159190610a2d565b42101561055e5760405162461bcd60e51b8152602060048201526017602482015276151bdad95b9cc8185c99481cdd1a5b1b081b1bd8dad959604a1b60448201526064016102ac565b60006064826002015483600001546105769190610a97565b6105809190610aae565b60015460405163a9059cbb60e01b8152336004820152602481018390529192506001600160a01b03169063a9059cbb906044016020604051808303816000875af11580156105d2573d6000803e3d6000fd5b505050506040513d601f19601f820116820180604052508101906105f69190610a46565b6106125760405162461bcd60e51b81526004016102ac90610a68565b60405181815233907f106f923f993c2149d49b4255ff723acafa1f2d94393f561d3eda32ae348f7241906020016103db565b69d3c21bcecceda10000008110156106915760405162461bcd60e51b815260206004820152601060248201526f105b5bdd5b9d081d1bdbc81cdb585b1b60821b60448201526064016102ac565b6001546040516323b872dd60e01b8152336004820152306024820152604481018390526001600160a01b03909116906323b872dd906064016020604051808303816000875af11580156106e8573d6000803e3d6000fd5b505050506040513d601f19601f8201168201806040525081019061070c9190610a46565b6107285760405162461bcd60e51b81526004016102ac90610a68565b33600081815260046020908152604080832081516060810183528681524281850181815260038054848701908152855460018082018855968a52988890209451989091029093019687555192860192909255516002909401939093558051858152918201929092527f0b05f0d1cd0819f155b8a61f60baf7767c1ee49d04aeaab701df236140eb93f9910160405180910390a269d3c21bcecceda1000000811061082a576002546040516335313c2160e11b81523360048201526001600160a01b0390911690636a62784290602401600060405180830381600087803b15801561081157600080fd5b505af1158015610825573d6000803e3d6000fd5b505050505b50565b6004602052816000526040600020818154811061084957600080fd5b600091825260209091206003909102018054600182015460029092015490935090915083565b6108776108aa565b6001600160a01b0381166108a157604051631e4fbdf760e01b8152600060048201526024016102ac565b61082a816108d7565b6000546001600160a01b031633146103fa5760405163118cdaa760e01b81523360048201526024016102ac565b600080546001600160a01b038381166001600160a01b0319831681178455604051919092169283917f8be0079c531659141344cd1fd0a4f28419497f9722a3daafe3b4186f6b6457e09190a35050565b60006020828403121561093957600080fd5b5035919050565b80356001600160a01b038116811461095757600080fd5b919050565b60006020828403121561096e57600080fd5b61097782610940565b9392505050565b602080825282518282018190526000919060409081850190868401855b828110156109ca578151805185528681015187860152850151858501526060909301929085019060010161099b565b5091979650505050505050565b600080604083850312156109ea57600080fd5b6109f383610940565b946020939093013593505050565b634e487b7160e01b600052603260045260246000fd5b634e487b7160e01b600052601160045260246000fd5b80820180821115610a4057610a40610a17565b92915050565b600060208284031215610a5857600080fd5b8151801515811461097757600080fd5b602080825260159082015274151bdad95b881d1c985b9cd9995c8819985a5b1959605a1b604082015260600190565b8082028115828204841417610a4057610a40610a17565b600082610acb57634e487b7160e01b600052601260045260246000fd5b50049056fea2646970667358221220eb80a0725350b263ffe600eaa9ca3218b491071226ea1c186c3055bb7e4e22e564736f6c63430008180033",
  "linkReferences": {},
  "deployedLinkReferences": {}
}