{
  "_format": "hh-sol-artifact-1",
  "contractName": "NFTB",
  "sourceName": "contracts/NFTB.sol",
  "abi": [
    {
      "inputs": [],
      "stateMutability": "nonpayable",
      "type": "constructor"
    },
    {
      "inputs": [],
      "name": "ERC721EnumerableForbiddenBatchMint",
      "type": "error"
    },
    {
      "inputs": [
        {
          "internalType": "address",
          "name": "sender",
          "type": "address"
        },
        {
          "internalType": "uint256",
          "name": "tokenId",
          "type": "uint256"
        },
        {
          "internalType": "address",
          "name": "owner",
          "type": "address"
        }
      ],
      "name": "ERC721IncorrectOwner",
      "type": "error"
    },
    {
      "inputs": [
        {
          "internalType": "address",
          "name": "operator",
          "type": "address"
        },
        {
          "internalType": "uint256",
          "name": "tokenId",
          "type": "uint256"
        }
      ],
      "name": "ERC721InsufficientApproval",
      "type": "error"
    },
    {
      "inputs": [
        {
          "internalType": "address",
          "name": "approver",
          "type": "address"
        }
      ],
      "name": "ERC721InvalidApprover",
      "type": "error"
    },
    {
      "inputs": [
        {
          "internalType": "address",
          "name": "operator",
          "type": "address"
        }
      ],
      "name": "ERC721InvalidOperator",
      "type": "error"
    },
    {
      "inputs": [
        {
          "internalType": "address",
          "name": "owner",
          "type": "address"
        }
      ],
      "name": "ERC721InvalidOwner",
      "type": "error"
    },
    {
      "inputs": [
        {
          "internalType": "address",
          "name": "receiver",
          "type": "address"
        }
      ],
      "name": "ERC721InvalidReceiver",
      "type": "error"
    },
    {
      "inputs": [
        {
          "internalType": "address",
          "name": "sender",
          "type": "address"
        }
      ],
      "name": "ERC721InvalidSender",
      "type": "error"
    },
    {
      "inputs": [
        {
          "internalType": "uint256",
          "name": "tokenId",
          "type": "uint256"
        }
      ],
      "name": "ERC721NonexistentToken",
      "type": "error"
    },
    {
      "inputs": [
        {
          "internalType": "address",
          "name": "owner",
          "type": "address"
        },
        {
          "internalType": "uint256",
          "name": "index",
          "type": "uint256"
        }
      ],
      "name": "ERC721OutOfBoundsIndex",
      "type": "error"
    },
    {
      "anonymous": false,
      "inputs": [
        {
          "indexed": true,
          "internalType": "address",
          "name": "owner",
          "type": "address"
        },
        {
          "indexed": true,
          "internalType": "address",
          "name": "approved",
          "type": "address"
        },
        {
          "indexed": true,
          "internalType": "uint256",
          "name": "tokenId",
          "type": "uint256"
        }
      ],
      "name": "Approval",
      "type": "event"
    },
    {
      "anonymous": false,
      "inputs": [
        {
          "indexed": true,
          "internalType": "address",
          "name": "owner",
          "type": "address"
        },
        {
          "indexed": true,
          "internalType": "address",
          "name": "operator",
          "type": "address"
        },
        {
          "indexed": false,
          "internalType": "bool",
          "name": "approved",
          "type": "bool"
        }
      ],
      "name": "ApprovalForAll",
      "type": "event"
    },
    {
      "anonymous": false,
      "inputs": [
        {
          "indexed": true,
          "internalType": "address",
          "name": "from",
          "type": "address"
        },
        {
          "indexed": true,
          "internalType": "address",
          "name": "to",
          "type": "address"
        },
        {
          "indexed": true,
          "internalType": "uint256",
          "name": "tokenId",
          "type": "uint256"
        }
      ],
      "name": "Transfer",
      "type": "event"
    },
    {
      "inputs": [
        {
          "internalType": "address",
          "name": "to",
          "type": "address"
        },
        {
          "internalType": "uint256",
          "name": "tokenId",
          "type": "uint256"
        }
      ],
      "name": "approve",
      "outputs": [],
      "stateMutability": "nonpayable",
      "type": "function"
    },
    {
      "inputs": [
        {
          "internalType": "address",
          "name": "owner",
          "type": "address"
        }
      ],
      "name": "balanceOf",
      "outputs": [
        {
          "internalType": "uint256",
          "name": "",
          "type": "uint256"
        }
      ],
      "stateMutability": "view",
      "type": "function"
    },
    {
      "inputs": [
        {
          "internalType": "uint256",
          "name": "tokenId",
          "type": "uint256"
        }
      ],
      "name": "getApproved",
      "outputs": [
        {
          "internalType": "address",
          "name": "",
          "type": "address"
        }
      ],
      "stateMutability": "view",
      "type": "function"
    },
    {
      "inputs": [
        {
          "internalType": "address",
          "name": "owner",
          "type": "address"
        },
        {
          "internalType": "address",
          "name": "operator",
          "type": "address"
        }
      ],
      "name": "isApprovedForAll",
      "outputs": [
        {
          "internalType": "bool",
          "name": "",
          "type": "bool"
        }
      ],
      "stateMutability": "view",
      "type": "function"
    },
    {
      "inputs": [
        {
          "internalType": "address",
          "name": "to",
          "type": "address"
        }
      ],
      "name": "mint",
      "outputs": [],
      "stateMutability": "nonpayable",
      "type": "function"
    },
    {
      "inputs": [],
      "name": "name",
      "outputs": [
        {
          "internalType": "string",
          "name": "",
          "type": "string"
        }
      ],
      "stateMutability": "view",
      "type": "function"
    },
    {
      "inputs": [
        {
          "internalType": "uint256",
          "name": "tokenId",
          "type": "uint256"
        }
      ],
      "name": "ownerOf",
      "outputs": [
        {
          "internalType": "address",
          "name": "",
          "type": "address"
        }
      ],
      "stateMutability": "view",
      "type": "function"
    },
    {
      "inputs": [
        {
          "internalType": "address",
          "name": "from",
          "type": "address"
        },
        {
          "internalType": "address",
          "name": "to",
          "type": "address"
        },
        {
          "internalType": "uint256",
          "name": "tokenId",
          "type": "uint256"
        }
      ],
      "name": "safeTransferFrom",
      "outputs": [],
      "stateMutability": "nonpayable",
      "type": "function"
    },
    {
      "inputs": [
        {
          "internalType": "address",
          "name": "from",
          "type": "address"
        },
        {
          "internalType": "address",
          "name": "to",
          "type": "address"
        },
        {
          "internalType": "uint256",
          "name": "tokenId",
          "type": "uint256"
        },
        {
          "internalType": "bytes",
          "name": "data",
          "type": "bytes"
        }
      ],
      "name": "safeTransferFrom",
      "outputs": [],
      "stateMutability": "nonpayable",
      "type": "function"
    },
    {
      "inputs": [
        {
          "internalType": "address",
          "name": "operator",
          "type": "address"
        },
        {
          "internalType": "bool",
          "name": "approved",
          "type": "bool"
        }
      ],
      "name": "setApprovalForAll",
      "outputs": [],
      "stateMutability": "nonpayable",
      "type": "function"
    },
    {
      "inputs": [
        {
          "internalType": "bytes4",
          "name": "interfaceId",
          "type": "bytes4"
        }
      ],
      "name": "supportsInterface",
      "outputs": [
        {
          "internalType": "bool",
          "name": "",
          "type": "bool"
        }
      ],
      "stateMutability": "view",
      "type": "function"
    },
    {
      "inputs": [],
      "name": "symbol",
      "outputs": [
        {
          "internalType": "string",
          "name": "",
          "type": "string"
        }
      ],
      "stateMutability": "view",
      "type": "function"
    },
    {
      "inputs": [
        {
          "internalType": "uint256",
          "name": "index",
          "type": "uint256"
        }
      ],
      "name": "tokenByIndex",
      "outputs": [
        {
          "internalType": "uint256",
          "name": "",
          "type": "uint256"
        }
      ],
      "stateMutability": "view",
      "type": "function"
    },
    {
      "inputs": [],
      "name": "tokenId",
      "outputs": [
        {
          "internalType": "uint256",
          "name": "",
          "type": "uint256"
        }
      ],
      "stateMutability": "view",
      "type": "function"
    },
    {
      "inputs": [
        {
          "internalType": "address",
          "name": "owner",
          "type": "address"
        },
        {
          "internalType": "uint256",
          "name": "index",
          "type": "uint256"
        }
      ],
      "name": "tokenOfOwnerByIndex",
      "outputs": [
        {
          "internalType": "uint256",
          "name": "",
          "type": "uint256"
        }
      ],
      "stateMutability": "view",
      "type": "function"
    },
    {
      "inputs": [
        {
          "internalType": "uint256",
          "name": "tokenId",
          "type": "uint256"
        }
      ],
      "name": "tokenURI",
      "outputs": [
        {
          "internalType": "string",
          "name": "",
          "type": "string"
        }
      ],
      "stateMutability": "view",
      "type": "function"
    },
    {
      "inputs": [],
      "name": "totalSupply",
      "outputs": [
        {
          "internalType": "uint256",
          "name": "",
          "type": "uint256"
        }
      ],
      "stateMutability": "view",
      "type": "function"
    },
    {
      "inputs": [
        {
          "internalType": "address",
          "name": "from",
          "type": "address"
        },
        {
          "internalType": "address",
          "name": "to",
          "type": "address"
        },
        {
          "internalType": "uint256",
          "name": "tokenId",
          "type": "uint256"
        }
      ],
      "name": "transferFrom",
      "outputs": [],
      "stateMutability": "nonpayable",
      "type": "function"
    }
  ],
  "bytecode": "0x60806040523480156200001157600080fd5b5060408051808201825260048082526327232a2160e11b60208084018290528451808601909552918452908301529060006200004e83826200010d565b5060016200005d82826200010d565b505050620001d9565b634e487b7160e01b600052604160045260246000fd5b600181811c908216806200009157607f821691505b602082108103620000b257634e487b7160e01b600052602260045260246000fd5b50919050565b601f82111562000108576000816000526020600020601f850160051c81016020861015620000e35750805b601f850160051c820191505b818110156200010457828155600101620000ef565b5050505b505050565b81516001600160401b0381111562000129576200012962000066565b62000141816200013a84546200007c565b84620000b8565b602080601f831160018114620001795760008415620001605750858301515b600019600386901b1c1916600185901b17855562000104565b600085815260208120601f198616915b82811015620001aa5788860151825594840194600190910190840162000189565b5085821015620001c95787850151600019600388901b60f8161c191681555b5050505050600190811b01905550565b6113df80620001e96000396000f3fe608060405234801561001057600080fd5b50600436106101165760003560e01c80634f6ccce7116100a257806395d89b411161007157806395d89b411461023c578063a22cb46514610244578063b88d4fde14610257578063c87b56dd1461026a578063e985e9c51461027d57600080fd5b80634f6ccce7146101f05780636352211e146102035780636a6278421461021657806370a082311461022957600080fd5b806317d70f7c116100e957806317d70f7c1461019857806318160ddd146101af57806323b872dd146101b75780632f745c59146101ca57806342842e0e146101dd57600080fd5b806301ffc9a71461011b57806306fdde0314610143578063081812fc14610158578063095ea7b314610183575b600080fd5b61012e610129366004610fe1565b610290565b60405190151581526020015b60405180910390f35b61014b6102bb565b60405161013a919061104e565b61016b610166366004611061565b61034d565b6040516001600160a01b03909116815260200161013a565b610196610191366004611096565b610376565b005b6101a1600a5481565b60405190815260200161013a565b6008546101a1565b6101966101c53660046110c0565b610385565b6101a16101d8366004611096565b610415565b6101966101eb3660046110c0565b61047a565b6101a16101fe366004611061565b61049a565b61016b610211366004611061565b6104f3565b6101966102243660046110fc565b6104fe565b6101a16102373660046110fc565b610522565b61014b61056a565b610196610252366004611117565b610579565b610196610265366004611169565b610584565b61014b610278366004611061565b61059b565b61012e61028b366004611245565b610610565b60006001600160e01b0319821663780e9d6360e01b14806102b557506102b58261063e565b92915050565b6060600080546102ca90611278565b80601f01602080910402602001604051908101604052809291908181526020018280546102f690611278565b80156103435780601f1061031857610100808354040283529160200191610343565b820191906000526020600020905b81548152906001019060200180831161032657829003601f168201915b5050505050905090565b60006103588261068e565b506000828152600460205260409020546001600160a01b03166102b5565b6103818282336106c7565b5050565b6001600160a01b0382166103b457604051633250574960e11b8152600060048201526024015b60405180910390fd5b60006103c18383336106d4565b9050836001600160a01b0316816001600160a01b03161461040f576040516364283d7b60e01b81526001600160a01b03808616600483015260248201849052821660448201526064016103ab565b50505050565b600061042083610522565b82106104515760405163295f44f760e21b81526001600160a01b0384166004820152602481018390526044016103ab565b506001600160a01b03919091166000908152600660209081526040808320938352929052205490565b61049583838360405180602001604052806000815250610584565b505050565b60006104a560085490565b82106104ce5760405163295f44f760e21b815260006004820152602481018390526044016103ab565b600882815481106104e1576104e16112b2565b90600052602060002001549050919050565b60006102b58261068e565b61050a81600a546107a9565b600a805490600061051a836112de565b919050555050565b60006001600160a01b03821661054e576040516322718ad960e21b8152600060048201526024016103ab565b506001600160a01b031660009081526003602052604090205490565b6060600180546102ca90611278565b6103813383836107c3565b61058f848484610385565b61040f84848484610862565b60606105a68261068e565b5060006105be60408051602081019091526000815290565b905060008151116105de5760405180602001604052806000815250610609565b806105e88461098b565b6040516020016105f99291906112f7565b6040516020818303038152906040525b9392505050565b6001600160a01b03918216600090815260056020908152604080832093909416825291909152205460ff1690565b60006001600160e01b031982166380ac58cd60e01b148061066f57506001600160e01b03198216635b5e139f60e01b145b806102b557506301ffc9a760e01b6001600160e01b03198316146102b5565b6000818152600260205260408120546001600160a01b0316806102b557604051637e27328960e01b8152600481018490526024016103ab565b6104958383836001610a1e565b6000806106e2858585610b24565b90506001600160a01b03811661073f5761073a84600880546000838152600960205260408120829055600182018355919091527ff3f7a9fe364faab93b216da50a3214154f22a0a2b415b23a84c8169e8b636ee30155565b610762565b846001600160a01b0316816001600160a01b031614610762576107628185610c1d565b6001600160a01b03851661077e5761077984610cae565b6107a1565b846001600160a01b0316816001600160a01b0316146107a1576107a18585610d5d565b949350505050565b610381828260405180602001604052806000815250610dad565b6001600160a01b0382166107f557604051630b61174360e31b81526001600160a01b03831660048201526024016103ab565b6001600160a01b03838116600081815260056020908152604080832094871680845294825291829020805460ff191686151590811790915591519182527f17307eab39ab6107e8899845ad3d59bd9653f200f220920489ca2b5937696c31910160405180910390a3505050565b6001600160a01b0383163b1561040f57604051630a85bd0160e11b81526001600160a01b0384169063150b7a02906108a4903390889087908790600401611326565b6020604051808303816000875af19250505080156108df575060408051601f3d908101601f191682019092526108dc91810190611363565b60015b610948573d80801561090d576040519150601f19603f3d011682016040523d82523d6000602084013e610912565b606091505b50805160000361094057604051633250574960e11b81526001600160a01b03851660048201526024016103ab565b805181602001fd5b6001600160e01b03198116630a85bd0160e11b1461098457604051633250574960e11b81526001600160a01b03851660048201526024016103ab565b5050505050565b6060600061099883610dc4565b600101905060008167ffffffffffffffff8111156109b8576109b8611153565b6040519080825280601f01601f1916602001820160405280156109e2576020820181803683370190505b5090508181016020015b600019016f181899199a1a9b1b9c1cb0b131b232b360811b600a86061a8153600a85049450846109ec57509392505050565b8080610a3257506001600160a01b03821615155b15610af4576000610a428461068e565b90506001600160a01b03831615801590610a6e5750826001600160a01b0316816001600160a01b031614155b8015610a815750610a7f8184610610565b155b15610aaa5760405163a9fbf51f60e01b81526001600160a01b03841660048201526024016103ab565b8115610af25783856001600160a01b0316826001600160a01b03167f8c5be1e5ebec7d5bd14f71427d1e84f3dd0314c0f7b2291e5b200ac8c7c3b92560405160405180910390a45b505b5050600090815260046020526040902080546001600160a01b0319166001600160a01b0392909216919091179055565b6000828152600260205260408120546001600160a01b0390811690831615610b5157610b51818486610e9c565b6001600160a01b03811615610b8f57610b6e600085600080610a1e565b6001600160a01b038116600090815260036020526040902080546000190190555b6001600160a01b03851615610bbe576001600160a01b0385166000908152600360205260409020805460010190555b60008481526002602052604080822080546001600160a01b0319166001600160a01b0389811691821790925591518793918516917fddf252ad1be2c89b69c2b068fc378daa952ba7f163c4a11628f55a4df523b3ef91a4949350505050565b6000610c2883610522565b600083815260076020526040902054909150808214610c7b576001600160a01b03841660009081526006602090815260408083208584528252808320548484528184208190558352600790915290208190555b5060009182526007602090815260408084208490556001600160a01b039094168352600681528383209183525290812055565b600854600090610cc090600190611380565b60008381526009602052604081205460088054939450909284908110610ce857610ce86112b2565b906000526020600020015490508060088381548110610d0957610d096112b2565b6000918252602080832090910192909255828152600990915260408082208490558582528120556008805480610d4157610d41611393565b6001900381819060005260206000200160009055905550505050565b60006001610d6a84610522565b610d749190611380565b6001600160a01b039093166000908152600660209081526040808320868452825280832085905593825260079052919091209190915550565b610db78383610f00565b6104956000848484610862565b60008072184f03e93ff9f4daa797ed6e38ed64bf6a1f0160401b8310610e035772184f03e93ff9f4daa797ed6e38ed64bf6a1f0160401b830492506040015b6d04ee2d6d415b85acef81000000008310610e2f576d04ee2d6d415b85acef8100000000830492506020015b662386f26fc100008310610e4d57662386f26fc10000830492506010015b6305f5e1008310610e65576305f5e100830492506008015b6127108310610e7957612710830492506004015b60648310610e8b576064830492506002015b600a83106102b55760010192915050565b610ea7838383610f65565b610495576001600160a01b038316610ed557604051637e27328960e01b8152600481018290526024016103ab565b60405163177e802f60e01b81526001600160a01b0383166004820152602481018290526044016103ab565b6001600160a01b038216610f2a57604051633250574960e11b8152600060048201526024016103ab565b6000610f38838360006106d4565b90506001600160a01b03811615610495576040516339e3563760e11b8152600060048201526024016103ab565b60006001600160a01b038316158015906107a15750826001600160a01b0316846001600160a01b03161480610f9f5750610f9f8484610610565b806107a15750506000908152600460205260409020546001600160a01b03908116911614919050565b6001600160e01b031981168114610fde57600080fd5b50565b600060208284031215610ff357600080fd5b813561060981610fc8565b60005b83811015611019578181015183820152602001611001565b50506000910152565b6000815180845261103a816020860160208601610ffe565b601f01601f19169290920160200192915050565b6020815260006106096020830184611022565b60006020828403121561107357600080fd5b5035919050565b80356001600160a01b038116811461109157600080fd5b919050565b600080604083850312156110a957600080fd5b6110b28361107a565b946020939093013593505050565b6000806000606084860312156110d557600080fd5b6110de8461107a565b92506110ec6020850161107a565b9150604084013590509250925092565b60006020828403121561110e57600080fd5b6106098261107a565b6000806040838503121561112a57600080fd5b6111338361107a565b91506020830135801515811461114857600080fd5b809150509250929050565b634e487b7160e01b600052604160045260246000fd5b6000806000806080858703121561117f57600080fd5b6111888561107a565b93506111966020860161107a565b925060408501359150606085013567ffffffffffffffff808211156111ba57600080fd5b818701915087601f8301126111ce57600080fd5b8135818111156111e0576111e0611153565b604051601f8201601f19908116603f0116810190838211818310171561120857611208611153565b816040528281528a602084870101111561122157600080fd5b82602086016020830137600060208483010152809550505050505092959194509250565b6000806040838503121561125857600080fd5b6112618361107a565b915061126f6020840161107a565b90509250929050565b600181811c9082168061128c57607f821691505b6020821081036112ac57634e487b7160e01b600052602260045260246000fd5b50919050565b634e487b7160e01b600052603260045260246000fd5b634e487b7160e01b600052601160045260246000fd5b6000600182016112f0576112f06112c8565b5060010190565b60008351611309818460208801610ffe565b83519083019061131d818360208801610ffe565b01949350505050565b6001600160a01b038581168252841660208201526040810183905260806060820181905260009061135990830184611022565b9695505050505050565b60006020828403121561137557600080fd5b815161060981610fc8565b818103818111156102b5576102b56112c8565b634e487b7160e01b600052603160045260246000fdfea2646970667358221220990cd47ffd6a1fc8dcb69f54bbaf08ddadc764498276f3541647f7e699fed96f64736f6c63430008180033",
  "linkReferences": {},
  "deployedLinkReferences": {}
}