{
  "_format": "hh-sol-artifact-1",
  "contractName": "DepositReward",
  "sourceName": "contracts/DepositReward.sol",
  "abi": [
    {
      "inputs": [
        {
          "internalType": "contract IERC20",
          "name": "_tokenA",
          "type": "address"
        },
        {
          "internalType": "contract NFTB",
          "name": "_nftB",
          "type": "address"
        },
        {
          "internalType": "contract TokenA",
          "name": "_tokenAa",
          "type": "address"
        }
      ],
      "stateMutability": "nonpayable",
      "type": "constructor"
    },
    {
      "inputs": [
        {
          "internalType": "address",
          "name": "owner",
          "type": "address"
        }
      ],
      "name": "OwnableInvalidOwner",
      "type": "error"
    },
    {
      "inputs": [
        {
          "internalType": "address",
          "name": "account",
          "type": "address"
        }
      ],
      "name": "OwnableUnauthorizedAccount",
      "type": "error"
    },
    {
      "anonymous": false,
      "inputs": [
        {
          "indexed": false,
          "internalType": "uint256",
          "name": "newAPR",
          "type": "uint256"
        }
      ],
      "name": "APRUpdated",
      "type": "event"
    },
    {
      "anonymous": false,
      "inputs": [
        {
          "indexed": true,
          "internalType": "address",
          "name": "user",
          "type": "address"
        },
        {
          "indexed": false,
          "internalType": "uint256",
          "name": "amount",
          "type": "uint256"
        },
        {
          "indexed": false,
          "internalType": "uint256",
          "name": "depositTime",
          "type": "uint256"
        }
      ],
      "name": "DepositMade",
      "type": "event"
    },
    {
      "anonymous": false,
      "inputs": [
        {
          "indexed": true,
          "internalType": "address",
          "name": "previousOwner",
          "type": "address"
        },
        {
          "indexed": true,
          "internalType": "address",
          "name": "newOwner",
          "type": "address"
        }
      ],
      "name": "OwnershipTransferred",
      "type": "event"
    },
    {
      "anonymous": false,
      "inputs": [
        {
          "indexed": true,
          "internalType": "address",
          "name": "user",
          "type": "address"
        },
        {
          "indexed": false,
          "internalType": "uint256",
          "name": "reward",
          "type": "uint256"
        }
      ],
      "name": "RewardClaimed",
      "type": "event"
    },
    {
      "anonymous": false,
      "inputs": [
        {
          "indexed": true,
          "internalType": "address",
          "name": "user",
          "type": "address"
        },
        {
          "indexed": false,
          "internalType": "uint256",
          "name": "amount",
          "type": "uint256"
        }
      ],
      "name": "Withdraw",
      "type": "event"
    },
    {
      "inputs": [],
      "name": "LOCK_PERIOD",
      "outputs": [
        {
          "internalType": "uint256",
          "name": "",
          "type": "uint256"
        }
      ],
      "stateMutability": "view",
      "type": "function"
    },
    {
      "inputs": [],
      "name": "TOKEN_THRESHOLD",
      "outputs": [
        {
          "internalType": "uint256",
          "name": "",
          "type": "uint256"
        }
      ],
      "stateMutability": "view",
      "type": "function"
    },
    {
      "inputs": [],
      "name": "apr",
      "outputs": [
        {
          "internalType": "uint256",
          "name": "",
          "type": "uint256"
        }
      ],
      "stateMutability": "view",
      "type": "function"
    },
    {
      "inputs": [],
      "name": "claimReward",
      "outputs": [],
      "stateMutability": "nonpayable",
      "type": "function"
    },
    {
      "inputs": [
        {
          "internalType": "uint256",
          "name": "amount",
          "type": "uint256"
        }
      ],
      "name": "deposit",
      "outputs": [],
      "stateMutability": "nonpayable",
      "type": "function"
    },
    {
      "inputs": [
        {
          "internalType": "address",
          "name": "",
          "type": "address"
        },
        {
          "internalType": "uint256",
          "name": "",
          "type": "uint256"
        }
      ],
      "name": "deposits",
      "outputs": [
        {
          "internalType": "uint256",
          "name": "amount",
          "type": "uint256"
        },
        {
          "internalType": "uint256",
          "name": "depositTime",
          "type": "uint256"
        },
        {
          "internalType": "uint256",
          "name": "apr",
          "type": "uint256"
        }
      ],
      "stateMutability": "view",
      "type": "function"
    },
    {
      "inputs": [
        {
          "internalType": "address",
          "name": "user",
          "type": "address"
        }
      ],
      "name": "getDeposits",
      "outputs": [
        {
          "components": [
            {
              "internalType": "uint256",
              "name": "amount",
              "type": "uint256"
            },
            {
              "internalType": "uint256",
              "name": "depositTime",
              "type": "uint256"
            },
            {
              "internalType": "uint256",
              "name": "apr",
              "type": "uint256"
            }
          ],
          "internalType": "struct DepositReward.Deposit[]",
          "name": "",
          "type": "tuple[]"
        }
      ],
      "stateMutability": "view",
      "type": "function"
    },
    {
      "inputs": [],
      "name": "nftB",
      "outputs": [
        {
          "internalType": "contract NFTB",
          "name": "",
          "type": "address"
        }
      ],
      "stateMutability": "view",
      "type": "function"
    },
    {
      "inputs": [],
      "name": "owner",
      "outputs": [
        {
          "internalType": "address",
          "name": "",
          "type": "address"
        }
      ],
      "stateMutability": "view",
      "type": "function"
    },
    {
      "inputs": [],
      "name": "renounceOwnership",
      "outputs": [],
      "stateMutability": "nonpayable",
      "type": "function"
    },
    {
      "inputs": [
        {
          "internalType": "uint256",
          "name": "newAPR",
          "type": "uint256"
        }
      ],
      "name": "setAPR",
      "outputs": [],
      "stateMutability": "nonpayable",
      "type": "function"
    },
    {
      "inputs": [],
      "name": "tokenA",
      "outputs": [
        {
          "internalType": "contract IERC20",
          "name": "",
          "type": "address"
        }
      ],
      "stateMutability": "view",
      "type": "function"
    },
    {
      "inputs": [],
      "name": "tokenAa",
      "outputs": [
        {
          "internalType": "contract TokenA",
          "name": "",
          "type": "address"
        }
      ],
      "stateMutability": "view",
      "type": "function"
    },
    {
      "inputs": [
        {
          "internalType": "address",
          "name": "newOwner",
          "type": "address"
        }
      ],
      "name": "transferOwnership",
      "outputs": [],
      "stateMutability": "nonpayable",
      "type": "function"
    },
    {
      "inputs": [],
      "name": "withdraw",
      "outputs": [],
      "stateMutability": "nonpayable",
      "type": "function"
    }
  ],
  "bytecode": "0x6080604052600860035534801561001557600080fd5b50604051610d84380380610d848339810160408190526100349161010e565b338061005a57604051631e4fbdf760e01b81526000600482015260240160405180910390fd5b610063816100a6565b50600180546001600160a01b039485166001600160a01b03199182161790915560028054938516938216939093179092556004805491909316911617905561015b565b600080546001600160a01b038381166001600160a01b0319831681178455604051919092169283917f8be0079c531659141344cd1fd0a4f28419497f9722a3daafe3b4186f6b6457e09190a35050565b6001600160a01b038116811461010b57600080fd5b50565b60008060006060848603121561012357600080fd5b835161012e816100f6565b602085015190935061013f816100f6565b6040850151909250610150816100f6565b809150509250925092565b610c1a8061016a6000396000f3fe608060405234801561001057600080fd5b50600436106100f55760003560e01c8063854303cf11610097578063b88a802f11610066578063b88a802f146101d7578063d6d68177146101df578063f2fde38b1461020d578063f7f3b6571461022057600080fd5b8063854303cf146101805780638da5cb5b1461019357806394f649dd146101a4578063b6b55f25146101c457600080fd5b806332e2cea8116100d357806332e2cea8146101525780633ccfd60b1461016557806357ded9c91461016f578063715018a61461017857600080fd5b80630fc63d10146100fa5780631820cabb1461012a5780632f3a5d2814610141575b600080fd5b60015461010d906001600160a01b031681565b6040516001600160a01b0390911681526020015b60405180910390f35b61013361012c81565b604051908152602001610121565b61013369d3c21bcecceda100000081565b60025461010d906001600160a01b031681565b61016d610233565b005b61013360035481565b61016d610491565b61016d61018e366004610a57565b6104a5565b6000546001600160a01b031661010d565b6101b76101b2366004610a8c565b6104e8565b6040516101219190610aae565b61016d6101d2366004610a57565b61057b565b61016d61078c565b6101f26101ed366004610b07565b61095d565b60408051938452602084019290925290820152606001610121565b61016d61021b366004610a8c565b61099f565b60045461010d906001600160a01b031681565b60006301e13380815b336000908152600560205260409020548110156103225733600090815260056020526040812080548390811061027457610274610b31565b90600052602060002090600302019050600081600001541180156102a9575061012c81600101546102a59190610b5d565b4210155b156103195760008160010154426102c09190610b76565b905060006102cf856064610b89565b6002840154845484916102e191610b89565b6102eb9190610b89565b6102f59190610ba0565b90506103018187610b5d565b83549096506103109087610b5d565b60008455955050505b5060010161023c565b506000821161039e5760405162461bcd60e51b815260206004820152603d60248201527f4e6f20746f6b656e7320617661696c61626c6520666f7220776974686472617760448201527f616c206f7220746f6b656e7320617265207374696c6c206c6f636b656400000060648201526084015b60405180910390fd5b60015460405163a9059cbb60e01b8152336004820152602481018490526001600160a01b039091169063a9059cbb906044016020604051808303816000875af11580156103ef573d6000803e3d6000fd5b505050506040513d601f19601f820116820180604052508101906104139190610bc2565b6104575760405162461bcd60e51b8152602060048201526015602482015274151bdad95b881d1c985b9cd9995c8819985a5b1959605a1b6044820152606401610395565b60405182815233907f884edad9ce6fa2440d8a54cc123490eb96d2768479d49ff9c7366125a9424364906020015b60405180910390a25050565b6104996109da565b6104a36000610a07565b565b6104ad6109da565b60038190556040518181527f2ec8ccb96042321f3bbdd56e8e4e4339bc07c9c2021e14e18ef12f5db282b37a9060200160405180910390a150565b6001600160a01b0381166000908152600560209081526040808320805482518185028101850190935280835260609492939192909184015b828210156105705783829060005260206000209060030201604051806060016040529081600082015481526020016001820154815260200160028201548152505081526020019060010190610520565b505050509050919050565b69d3c21bcecceda10000008110156105c85760405162461bcd60e51b815260206004820152601060248201526f105b5bdd5b9d081d1bdbc81cdb585b1b60821b6044820152606401610395565b6001546040516323b872dd60e01b8152336004820152306024820152604481018390526001600160a01b03909116906323b872dd906064016020604051808303816000875af115801561061f573d6000803e3d6000fd5b505050506040513d601f19601f820116820180604052508101906106439190610bc2565b6106875760405162461bcd60e51b8152602060048201526015602482015274151bdad95b881d1c985b9cd9995c8819985a5b1959605a1b6044820152606401610395565b33600081815260056020908152604080832081516060810183528681524281850181815260038054848701908152855460018082018855968a52988890209451989091029093019687555192860192909255516002909401939093558051858152918201929092527f0b05f0d1cd0819f155b8a61f60baf7767c1ee49d04aeaab701df236140eb93f9910160405180910390a269d3c21bcecceda10000008110610789576002546040516335313c2160e11b81523360048201526001600160a01b0390911690636a62784290602401600060405180830381600087803b15801561077057600080fd5b505af1158015610784573d6000803e3d6000fd5b505050505b50565b60006301e13380815b33600090815260056020526040902054811015610864573360009081526005602052604081208054839081106107cd576107cd610b31565b9060005260206000209060030201905061012c81600101546107ef9190610b5d565b42101580156107fe5750805415155b1561085b5760008160010154426108159190610b76565b90506000610824856064610b89565b60028401548454849161083691610b89565b6108409190610b89565b61084a9190610ba0565b90506108568187610b5d565b955050505b50600101610795565b50600082116108b55760405162461bcd60e51b815260206004820152601d60248201527f4e6f207265776172647320617661696c61626c6520746f20636c61696d0000006044820152606401610395565b60015460405163a9059cbb60e01b8152336004820152602481018490526001600160a01b039091169063a9059cbb906044016020604051808303816000875af1158015610906573d6000803e3d6000fd5b505050506040513d601f19601f8201168201806040525081019061092a9190610bc2565b5060405182815233907f106f923f993c2149d49b4255ff723acafa1f2d94393f561d3eda32ae348f724190602001610485565b6005602052816000526040600020818154811061097957600080fd5b600091825260209091206003909102018054600182015460029092015490935090915083565b6109a76109da565b6001600160a01b0381166109d157604051631e4fbdf760e01b815260006004820152602401610395565b61078981610a07565b6000546001600160a01b031633146104a35760405163118cdaa760e01b8152336004820152602401610395565b600080546001600160a01b038381166001600160a01b0319831681178455604051919092169283917f8be0079c531659141344cd1fd0a4f28419497f9722a3daafe3b4186f6b6457e09190a35050565b600060208284031215610a6957600080fd5b5035919050565b80356001600160a01b0381168114610a8757600080fd5b919050565b600060208284031215610a9e57600080fd5b610aa782610a70565b9392505050565b602080825282518282018190526000919060409081850190868401855b82811015610afa5781518051855286810151878601528501518585015260609093019290850190600101610acb565b5091979650505050505050565b60008060408385031215610b1a57600080fd5b610b2383610a70565b946020939093013593505050565b634e487b7160e01b600052603260045260246000fd5b634e487b7160e01b600052601160045260246000fd5b80820180821115610b7057610b70610b47565b92915050565b81810381811115610b7057610b70610b47565b8082028115828204841417610b7057610b70610b47565b600082610bbd57634e487b7160e01b600052601260045260246000fd5b500490565b600060208284031215610bd457600080fd5b81518015158114610aa757600080fdfea2646970667358221220b3f52e82b4411a0ac99033cafaa38a84c07aa507c97e821e7e59260cbceabae764736f6c63430008180033",
  "linkReferences": {},
  "deployedLinkReferences": {}
}