{
  "_format": "hh-sol-artifact-1",
  "contractName": "DepositReward",
  "sourceName": "contracts/DepositReward.sol",
  "abi": [
    {
      "inputs": [
        {
          "internalType": "contract IERC20",
          "name": "_tokenA",
          "type": "address"
        },
        {
          "internalType": "contract NFTB",
          "name": "_nftB",
          "type": "address"
        }
      ],
      "stateMutability": "nonpayable",
      "type": "constructor"
    },
    {
      "inputs": [
        {
          "internalType": "address",
          "name": "owner",
          "type": "address"
        }
      ],
      "name": "OwnableInvalidOwner",
      "type": "error"
    },
    {
      "inputs": [
        {
          "internalType": "address",
          "name": "account",
          "type": "address"
        }
      ],
      "name": "OwnableUnauthorizedAccount",
      "type": "error"
    },
    {
      "anonymous": false,
      "inputs": [
        {
          "indexed": false,
          "internalType": "uint256",
          "name": "id",
          "type": "uint256"
        },
        {
          "indexed": true,
          "internalType": "address",
          "name": "user",
          "type": "address"
        },
        {
          "indexed": false,
          "internalType": "uint256",
          "name": "amount",
          "type": "uint256"
        },
        {
          "indexed": false,
          "internalType": "uint256",
          "name": "depositTime",
          "type": "uint256"
        }
      ],
      "name": "DepositMade",
      "type": "event"
    },
    {
      "anonymous": false,
      "inputs": [
        {
          "indexed": true,
          "internalType": "address",
          "name": "previousOwner",
          "type": "address"
        },
        {
          "indexed": true,
          "internalType": "address",
          "name": "newOwner",
          "type": "address"
        }
      ],
      "name": "OwnershipTransferred",
      "type": "event"
    },
    {
      "inputs": [],
      "name": "LOCK_PERIOD",
      "outputs": [
        {
          "internalType": "uint256",
          "name": "",
          "type": "uint256"
        }
      ],
      "stateMutability": "view",
      "type": "function"
    },
    {
      "inputs": [],
      "name": "TOKEN_THRESHOLD",
      "outputs": [
        {
          "internalType": "uint256",
          "name": "",
          "type": "uint256"
        }
      ],
      "stateMutability": "view",
      "type": "function"
    },
    {
      "inputs": [],
      "name": "apr",
      "outputs": [
        {
          "internalType": "uint256",
          "name": "",
          "type": "uint256"
        }
      ],
      "stateMutability": "view",
      "type": "function"
    },
    {
      "inputs": [
        {
          "internalType": "uint256",
          "name": "index",
          "type": "uint256"
        }
      ],
      "name": "claimReward",
      "outputs": [],
      "stateMutability": "nonpayable",
      "type": "function"
    },
    {
      "inputs": [
        {
          "internalType": "uint8",
          "name": "",
          "type": "uint8"
        }
      ],
      "name": "counterEvent",
      "outputs": [
        {
          "internalType": "uint256",
          "name": "",
          "type": "uint256"
        }
      ],
      "stateMutability": "view",
      "type": "function"
    },
    {
      "inputs": [
        {
          "internalType": "uint256",
          "name": "amount",
          "type": "uint256"
        }
      ],
      "name": "deposit",
      "outputs": [],
      "stateMutability": "nonpayable",
      "type": "function"
    },
    {
      "inputs": [
        {
          "internalType": "address",
          "name": "",
          "type": "address"
        },
        {
          "internalType": "uint256",
          "name": "",
          "type": "uint256"
        }
      ],
      "name": "deposits",
      "outputs": [
        {
          "internalType": "address",
          "name": "user",
          "type": "address"
        },
        {
          "internalType": "uint256",
          "name": "amount",
          "type": "uint256"
        },
        {
          "internalType": "uint256",
          "name": "depositTime",
          "type": "uint256"
        }
      ],
      "stateMutability": "view",
      "type": "function"
    },
    {
      "inputs": [
        {
          "internalType": "address",
          "name": "user",
          "type": "address"
        }
      ],
      "name": "getDeposits",
      "outputs": [
        {
          "components": [
            {
              "internalType": "address",
              "name": "user",
              "type": "address"
            },
            {
              "internalType": "uint256",
              "name": "amount",
              "type": "uint256"
            },
            {
              "internalType": "uint256",
              "name": "depositTime",
              "type": "uint256"
            }
          ],
          "internalType": "struct DepositReward.Deposit[]",
          "name": "",
          "type": "tuple[]"
        }
      ],
      "stateMutability": "view",
      "type": "function"
    },
    {
      "inputs": [],
      "name": "nftB",
      "outputs": [
        {
          "internalType": "contract NFTB",
          "name": "",
          "type": "address"
        }
      ],
      "stateMutability": "view",
      "type": "function"
    },
    {
      "inputs": [],
      "name": "owner",
      "outputs": [
        {
          "internalType": "address",
          "name": "",
          "type": "address"
        }
      ],
      "stateMutability": "view",
      "type": "function"
    },
    {
      "inputs": [],
      "name": "renounceOwnership",
      "outputs": [],
      "stateMutability": "nonpayable",
      "type": "function"
    },
    {
      "inputs": [],
      "name": "tokenA",
      "outputs": [
        {
          "internalType": "contract IERC20",
          "name": "",
          "type": "address"
        }
      ],
      "stateMutability": "view",
      "type": "function"
    },
    {
      "inputs": [
        {
          "internalType": "address",
          "name": "newOwner",
          "type": "address"
        }
      ],
      "name": "transferOwnership",
      "outputs": [],
      "stateMutability": "nonpayable",
      "type": "function"
    },
    {
      "inputs": [
        {
          "internalType": "address",
          "name": "",
          "type": "address"
        },
        {
          "internalType": "uint256",
          "name": "",
          "type": "uint256"
        }
      ],
      "name": "userInfo",
      "outputs": [
        {
          "internalType": "uint256",
          "name": "amount",
          "type": "uint256"
        },
        {
          "internalType": "uint256",
          "name": "startTime",
          "type": "uint256"
        },
        {
          "internalType": "uint256",
          "name": "apr",
          "type": "uint256"
        }
      ],
      "stateMutability": "view",
      "type": "function"
    },
    {
      "inputs": [
        {
          "internalType": "uint256",
          "name": "index",
          "type": "uint256"
        }
      ],
      "name": "withdraw",
      "outputs": [],
      "stateMutability": "nonpayable",
      "type": "function"
    }
  ],
  "bytecode": "0x6080604052600860045534801561001557600080fd5b50604051610c09380380610c09833981016040819052610034916100fd565b338061005a57604051631e4fbdf760e01b81526000600482015260240160405180910390fd5b61006381610095565b50600180546001600160a01b039384166001600160a01b03199182161790915560028054929093169116179055610137565b600080546001600160a01b038381166001600160a01b0319831681178455604051919092169283917f8be0079c531659141344cd1fd0a4f28419497f9722a3daafe3b4186f6b6457e09190a35050565b6001600160a01b03811681146100fa57600080fd5b50565b6000806040838503121561011057600080fd5b825161011b816100e5565b602084015190925061012c816100e5565b809150509250929050565b610ac3806101466000396000f3fe608060405234801561001057600080fd5b50600436106100f55760003560e01c806366de9a9511610097578063ae169a5011610066578063ae169a501461020a578063b6b55f251461021d578063d6d6817714610230578063f2fde38b1461026857600080fd5b806366de9a95146101b1578063715018a6146101d15780638da5cb5b146101d957806394f649dd146101ea57600080fd5b80632e1a7d4d116100d35780632e1a7d4d1461016f5780632f3a5d281461018457806332e2cea81461019557806357ded9c9146101a857600080fd5b80630fc63d10146100fa5780631820cabb1461012a57806321ce919d14610141575b600080fd5b60015461010d906001600160a01b031681565b6040516001600160a01b0390911681526020015b60405180910390f35b61013361012c81565b604051908152602001610121565b61015461014f3660046108ea565b61027b565b60408051938452602084019290925290820152606001610121565b61018261017d366004610914565b6102bd565b005b61013369d3c21bcecceda100000081565b60025461010d906001600160a01b031681565b61013360045481565b6101336101bf36600461092d565b60036020526000908152604090205481565b6101826103d5565b6000546001600160a01b031661010d565b6101fd6101f8366004610957565b6103e9565b6040516101219190610972565b610182610218366004610914565b610481565b61018261022b366004610914565b610565565b61024361023e3660046108ea565b6107ca565b604080516001600160a01b039094168452602084019290925290820152606001610121565b610182610276366004610957565b610816565b6006602052816000526040600020818154811061029757600080fd5b600091825260209091206003909102018054600182015460029092015490935090915083565b3360009081526005602052604081208054839081106102de576102de6109d4565b9060005260206000209060030201905061012c81600201546103009190610a00565b42101561034e5760405162461bcd60e51b8152602060048201526017602482015276151bdad95b9cc8185c99481cdd1a5b1b081b1bd8dad959604a1b60448201526064015b60405180910390fd5b600181810180546000909155905460405163a9059cbb60e01b8152336004820152602481018390526001600160a01b039091169063a9059cbb906044015b6020604051808303816000875af11580156103ab573d6000803e3d6000fd5b505050506040513d601f19601f820116820180604052508101906103cf9190610a19565b50505050565b6103dd610851565b6103e7600061087e565b565b6001600160a01b0381166000908152600560209081526040808320805482518185028101850190935280835260609492939192909184015b82821015610476576000848152602090819020604080516060810182526003860290920180546001600160a01b0316835260018082015484860152600290910154918301919091529083529092019101610421565b505050509050919050565b3360009081526005602052604081208054839081106104a2576104a26109d4565b9060005260206000209060030201905061012c81600201546104c49190610a00565b42101561050d5760405162461bcd60e51b8152602060048201526017602482015276151bdad95b9cc8185c99481cdd1a5b1b081b1bd8dad959604a1b6044820152606401610345565b6000606460045483600101546105239190610a3b565b61052d9190610a52565b60015460405163a9059cbb60e01b8152336004820152602481018390529192506001600160a01b03169063a9059cbb9060440161038c565b69d3c21bcecceda10000008110156105ca5760405162461bcd60e51b815260206004820152602260248201527f4465706f736974206d757374206265206174206c6561737420314d20546f6b656044820152616e4160f01b6064820152608401610345565b6001546040516323b872dd60e01b8152336004820152306024820152604481018390526001600160a01b03909116906323b872dd906064016020604051808303816000875af1158015610621573d6000803e3d6000fd5b505050506040513d601f19601f820116820180604052508101906106459190610a19565b50600080805260036020527f3617319a054d772f909f7c479a2cebe5066e836a939412e32403c99029b92eff80549161067d83610a74565b909155505033600081815260056020908152604080832081516060808201845286825281850188815242838601818152855460018082018855968a52888a209551600391820290960180546001600160a01b0319166001600160a01b03909716969096178655925195850195909555935160029093019290925594805283527f3617319a054d772f909f7c479a2cebe5066e836a939412e32403c99029b92eff548251908152928301869052908201527ff7748ed362ae6427631c778e495f7eb63b00c0794b6066744a0cba2c59135a65910160405180910390a269d3c21bcecceda100000081106107c7576002546040516335313c2160e11b81523360048201526001600160a01b0390911690636a62784290602401600060405180830381600087803b1580156107ae57600080fd5b505af11580156107c2573d6000803e3d6000fd5b505050505b50565b600560205281600052604060002081815481106107e657600080fd5b60009182526020909120600390910201805460018201546002909201546001600160a01b03909116935090915083565b61081e610851565b6001600160a01b03811661084857604051631e4fbdf760e01b815260006004820152602401610345565b6107c78161087e565b6000546001600160a01b031633146103e75760405163118cdaa760e01b8152336004820152602401610345565b600080546001600160a01b038381166001600160a01b0319831681178455604051919092169283917f8be0079c531659141344cd1fd0a4f28419497f9722a3daafe3b4186f6b6457e09190a35050565b80356001600160a01b03811681146108e557600080fd5b919050565b600080604083850312156108fd57600080fd5b610906836108ce565b946020939093013593505050565b60006020828403121561092657600080fd5b5035919050565b60006020828403121561093f57600080fd5b813560ff8116811461095057600080fd5b9392505050565b60006020828403121561096957600080fd5b610950826108ce565b602080825282518282018190526000919060409081850190868401855b828110156109c757815180516001600160a01b031685528681015187860152850151858501526060909301929085019060010161098f565b5091979650505050505050565b634e487b7160e01b600052603260045260246000fd5b634e487b7160e01b600052601160045260246000fd5b80820180821115610a1357610a136109ea565b92915050565b600060208284031215610a2b57600080fd5b8151801515811461095057600080fd5b8082028115828204841417610a1357610a136109ea565b600082610a6f57634e487b7160e01b600052601260045260246000fd5b500490565b600060018201610a8657610a866109ea565b506001019056fea264697066735822122066acc3a7444edcf10f0b0aa38813888b95a8374a7c396ba06c150bb7c37bfe8264736f6c63430008180033",
  "linkReferences": {},
  "deployedLinkReferences": {}
}